:020000040800F2
:10000000A8040020FD040008390300083B03000891
:100010003D0300083F030008410300080000000002
:100020000000000000000000000000004303000882
:1000300045030008000000004703000849030008CA
:100040001705000817050008170500081705000820
:100050001705000817050008170500081705000810
:100060001705000817050008170500081705000800
:1000700017050008170500081705000817050008F0
:1000800017050008170500081705000817050008E0
:1000900017050008170500081705000817050008D0
:1000A00017050008170500081705000817050008C0
:1000B00017050008170500081705000817050008B0
:1000C00017050008170500081705000817050008A0
:1000D0001705000817050008170500081705000890
:1000E0001705000817050008170500081705000880
:1000F0001705000817050008170500081705000870
:10010000170500081705000817050008170500085F
:10011000170500081705000817050008170500084F
:10012000170500081705000817050008170500083F
:10013000170500081705000817050008170500082F
:10014000170500081705000817050008170500081F
:10015000170500081705000817050008170500080F
:1001600017050008170500081705000817050008FF
:1001700017050008170500081705000817050008EF
:100180001705000817050008DFF80CD001F002FD84
:100190000048004763020008A80400205D48016889
:1001A00041F0080101605C48802101800021021DAE
:1001B0001180594A24321160574A491E2C3211606D
:1001C0005321121F1180544A0121143211800188D9
:1001D00041F0010101807047B0EE002A21EE021AC1
:1001E0009FED4E2AF7EE002A21EE022A82EE821AB5
:1001F00031EE212A81EE821A70EE601AB0EE600AAA
:1002000001EE210A7047464A10B5A2F11001101DF7
:1002100001F0A3F8424C143C94ED0A0B51EC100B86
:1002200001F08EFB01EE900A94ED001AD4ED030A62
:1002300094ED050AFFF7D0FF84ED030AD4ED020A1E
:100240009FED381A60EE810A9FED371A40EE010AE1
:10025000B2EE040AC4ED020A20EE800A84ED040A1C
:1002600010BD2DED028B82B0A82000F0F7FCC82055
:1002700000F035FD00F028F9FFF790FF012108207C
:1002800000F015FC4220009001208DF804000220AF
:100290008DF8050000208DF80600244F8DF807002A
:1002A0006946384600F000FA142000F018FD00F00E
:1002B0003CFF642000F013FD002000F061FF01F01E
:1002C000E9FA174C143CC4E90801642000F007FD6A
:1002D000114D243528689FED168B4FF470484FF46C
:1002E0007A66E0614146384600F04EFAFFF78BFF30
:1002F000E0692968091AB142FBD32968081A01F09C
:10030000DAFA53EC182B01F0E4F9C4E90A01286881
:10031000E061E7E740380240000C0040F90F494037
:1003200014000020AC1C7A3F7F6ABC3C000C0240E9
:100330008DEDB5A0F7C6B03E7047FEE7FEE7FEE7DD
:10034000FEE7704770477047704700000CB5002209
:10035000544900920192086840F4803008604FF4DC
:10036000A043086800F4003001900098401C009001
:10037000019810B900989842F3D10868800334D5E9
:100380000120019047484030026842F080520260EC
:100390004548026842F44042026042480830026820
:1003A0000260026842F400420260026842F4A05215
:1003B0000260031F3D4A1A600A6842F080720A60B8
:1003C0000A689201FCD53A4940F205720A60016858
:1003D00021F003010160016841F002010160016840
:1003E000C1F381010229FAD10CBD01920CBD314843
:1003F00010B5016841F4700101602A48016841F0BC
:1004000001010160274A00210832116002682A4B6D
:100410001A400260031D294A1A60026822F48022F1
:10042000026020480C300160FFF790FF21494FF037
:1004300000608039086010BD70B51A4D0835286815
:100440001F4B204910F00C0004D05E10042803D08C
:10045000082803D00B601BE00E6019E0114A121D42
:100460001068C0F38054106800F03F0014B1B6FB70
:10047000F0F001E0B3FBF0F013681268C3F38813E7
:100480005843C2F30142521C5200B0FBF2F0086024
:1004900028680C4AC0F30310121D105C0A68C240A1
:1004A0000A6070BD003802400070004008544007E8
:1004B000003C024088ED00E0FFFFF6FE1030002413
:1004C0000024F4003000002010B50121082000F0C5
:1004D000EEFA08484FF470410160012101710021DA
:1004E000817103224271C1710146BDE8104002488A
:1004F00000F0DAB844000020000C024006488047B3
:1005000006480047FEE7FEE7FEE7FEE7FEE7FEE7F8
:10051000FEE7FEE7FEE7FEE7EF03000889010008BB
:100520002849084328490860704730B50F23C2782E
:1005300001780125FAB1244A126801F1E02102F4A0
:10054000E062C2F5E062C2F30722C2F10404D340C4
:100550004278A24084781C401443220181F8002490
:10056000007800F01F018D404009800000F1E0207C
:10057000C0F8005130BD01F01F00854048098000DF
:1005800000F1E020C0F8805130BD104A1140014315
:100590000D48001F016070470B4A121D00291168A9
:1005A00001D0014300E08143116070474FF0E0212A
:1005B0000428086903D020F004000861704740F067
:1005C0000400FAE70000FA050CED00E080FFFF1FD1
:1005D000774910B5884206D10121084600F099FA02
:1005E000002101205BE07349884206D101210220ED
:1005F00000F08FFA0021022051E06F49884206D1B5
:100600000121042000F085FA0021042047E06B4915
:10061000884206D10121082000F07BFA0021082041
:100620003DE06749884206D10121102000F071FAAF
:100630000021102033E06349884206D101212020A7
:1006400000F067FA0021202029E05F49884206D1A6
:100650000121402000F05DFA002140201FE05B49AD
:10066000884206D10121802000F053FA0021802029
:1006700015E05749884202D1012184150AE0554905
:10068000884202D10121441504E0534988420AD12D
:1006900001210415204600F03CFA00212046BDE867
:1006A000104000F036BA10BDF0B5002201274FF01F
:1006B000030C0B6807FA02F52B40AB422CD10668FD
:1006C00053000CFA03F4A64306600E79D0F800E05C
:1006D0009E4046EA0E0606600E79012E01D0022EDB
:1006E00012D18668A64386604E79D0F808E09E4015
:1006F00046EA0E0686604668AE43466045688E79D7
:100700009640B6B235434560C568A543C560CC790F
:100710009C40C3681C43C460521C102AC9D3F0BD5E
:100720004FF6FF7101600021017141718171C1714A
:10073000704708B541F480320092C261C1610099EE
:10074000C161C169C069009008BD024600201269FC
:100750000A4200D001207047006980B2704702460B
:10076000002052690A4200D001207047406980B2DF
:10077000704701837047418370470AB10183704716
:10078000418370474161704742694A404261704706
:100790004B07DB0E9A40C90810B500EB8100016AD7
:1007A0000F249C40A1430162016A1143016210BD04
:1007B000000002400004024000080240000C024019
:1007C000001002400014024000180240001C0240C9
:1007D000002002400024024000280240F84801683E
:1007E00041F001010160F64A0021083211600268FF
:1007F000F44B1A400260031DF34A1A60F04BF34AAF
:1008000084331A60F04A103A1B1D1A60026822F401
:1008100080220260EA480C300160181D01607047B8
:10082000E7490022891C0A700870704702460020C0
:10083000510901290CD002290CD0E1497431096811
:1008400002F01F02012393400B4200D001207047A9
:10085000DB49F4E7DA497031F1E718B500204FF4CD
:10086000A04400903120FFF7E1FF0099491C00915E
:10087000A14201D00028F5D03120FFF7D7FF002892
:1008800000D0012018BDCE4A116821F0F80141EADC
:10089000C00010607047CE4908607047C849002208
:1008A00070310A700A70012802D0042801D1052095
:1008B00008707047C7490860704741EA82115A08BA
:1008C00010B5C54B029C03EB02421143014341EAC0
:1008D0000460BB49091D086010BDBD49086670472A
:1008E000800140EA0170B649843108607047B84918
:1008F00088667047800140EA0160B14940EA0270B1
:10090000883108607047B24908677047B049C864C9
:100910007047AB4B08331A68084322F0EC6210436F
:1009200018607047A64B08331A68084322F07842D3
:10093000104318607047A24A0832116821F0030181
:100940000143116070479E480830006800F00C00B9
:1009500070479B4A0832116821F0F0010143116091
:100960007047974A0832116821F4E0510143116041
:100970007047934A0832116821F4604141EAC0008F
:100980001060704770B58E4B08331968934C11F0A6
:100990000C0104D06610042903D0082903D0046098
:1009A0001BE0066019E0864A121D1168C1F38055EC
:1009B000116801F03F0115B1B6FBF1F101E0B4FBA4
:1009C000F1F114681268C4F388146143C2F3014260
:1009D000521C5200B1FBF2F1016019680F2202EAC9
:1009E00011117F4A545C0168E14041601C68072591
:1009F00005EA9424145D21FA04F484601B6805EA76
:100A00005333D25CD140C16070BDC0F301210329D2
:100A100008D16B4B08331968724A21F4F81102406F
:100A20000A431A60664970310A68C0F30B0002433A
:100A30000A60704767494439086070476549403922
:100A4000086070476249C1F85C0170475C4A8C32AB
:100A50001168401E21F01F01014311607047584A80
:100A60008C3211686FF0FF0321F4F85103EB002082
:100A7000084310607047524A8C32116821F44011CB
:100A80000143116070474E4A8C32116821F44001D5
:100A90000143116070474A4A8C32116821F4403199
:100AA0000143116070475049C1F8E0017047444A62
:100AB00030320029116801D0014300E08143116008
:100AC00070473F4A34320029116801D0014300E0E9
:100AD0008143116070473A4A38320029116801D0C9
:100AE000014300E0814311607047354A40320029DC
:100AF000116801D0014300E0814311607047304A22
:100B000044320029116801D0014300E081431160A3
:100B100070472B4A10320029116801D0014300E0D0
:100B2000814311607047264A14320029116801D0B0
:100B3000014300E0814311607047214A18320029C7
:100B4000116801D0014300E08143116070471C4AE5
:100B500020320029116801D0014300E08143116077
:100B60007047174A24320029116801D0014300E080
:100B7000814311607047124A50320029116801D038
:100B8000014300E08143116070470D4A543200294F
:100B9000116801D0014300E0814311607047084AA9
:100BA00058320029116801D0014300E081431160EF
:100BB0007047034A60320029116817D0014316E0DC
:100BC00000380240FFFFF6EA103000240030002019
:100BD00000004742800E47420000FFFF0024F4005F
:100BE0004C000020FFFCFF0F0010474281431160C2
:100BF0007047194A0029116801D0014300E0814380
:100C00001160704714490C310128086803D020F0A6
:100C100008000860704740F00800FAE70E4A573AAB
:100C20000029117801D0014300E081431170704721
:100C300009481030016841F0807101607047014639
:100C4000054A0020583A12680A4200D00120704735
:100C500001495639087070476438024010B504469F
:100C60006FF00400FFF7A2FC2949E00800EB400206
:100C70000870C2EBC0104FF6FF7202EAC000488055
:100C800010BD2349097848434FF0E0214861002313
:100C90008B61086940F0010008610869C20701D052
:100CA000C003FAD5086920F0010008618B61704724
:100CB0001749498848434FF0E021486100238B6180
:100CC000086940F0010008610869C20701D0C0034B
:100CD000FAD5086920F0010008618B61704770B592
:100CE0004FF40776B0FBF6F1CCB2B0FBF6F106FBA1
:100CF000110504E03046FFF7DBFF641EE4B2002C70
:100D0000F8D1002D03D02846BDE87040D0E770BD73
:100D10005C0000201CB501210220FFF7C8FEC020A6
:100D2000009001208DF8040002208DF805000020BD
:100D30008DF806008DF807006946DA48FFF7B4FC25
:100D40001CBD70B5D848016821F4405101600168AC
:100D500041F480510160D54C0120C4F89802C4F8D8
:100D60008402022004F52174FFF78BFF00256561E2
:100D70000220FFF786FF256070BDCB4810B50168E3
:100D800021F440510160016841F480510160C74C79
:100D90000020C4F88402C4F89802022004F52174EB
:100DA000FFF76FFF012020606061BDE81040022066
:100DB000FFF767BF70B5BC480024016821F44051BB
:100DC000016001680160B94D0126C5F8986230469E
:100DD000FFF757FFC5F884620BE0641CE4B2322CC5
:100DE00007D9FFF7CAFFB2490888401C08800120D4
:100DF00070BD0120FFF745FFD5F818020028ECD19F
:100E0000C5F8840270BD70B5A84C0025C4F88452A2
:100E1000A548016821F440510160016841F4805106
:100E20000160C4F89852012004F52174FFF729FFEE
:100E300001202060FFF725FF256070BD70B59B4C39
:100E40000026C4F884629848016821F4405101608A
:100E5000016841F4805101600125C4F89852284688
:100E600004F52174FFF70DFF25600120FFF709FF4E
:100E7000266070BD2DE9F04105468B48016821F4DC
:100E800040510160016841F480510160874E0027A4
:100E9000C6F884723C464FF00108E809C6F898028B
:100EA0006806050E0120FFF7ECFEC6F884820120DB
:100EB000FFF7E7FEC6F884720120FFF7E2FE641C2C
:100EC000E4B2082CE9D3BDE8F0812DE9F047814672
:100ED00075480024016821F44051016001680160F7
:100EE000724E254627464FF00108C6F8847201204D
:100EF000FFF7C7FEC6F884826006040ED6F8180213
:100F000008B1641CE4B20120FFF7BBFE6D1CEDB21A
:100F1000082DEAD3B9F1000F02D0FFF774FF01E00A
:100F2000FFF78CFF2046BDE8F08770B50D460446FC
:100F3000FFF707FF2046FFF79DFFFFF73BFF28461F
:100F4000FFF798FFFFF736FFFFF7FBFE641CE0B2E8
:100F5000FFF790FFFFF72EFF0020FFF7B6FF0446D4
:100F6000FFF70BFF204670BD2DE9F0411D461646E8
:100F7000884607460024FFF7E4FE3846FFF77AFF6D
:100F8000FFF718FF4046FFF775FFFFF713FFFFF766
:100F9000D8FE7F1CF8B2FFF76DFFFFF70BFF771E3F
:100FA00009E0BC4201D0012000E00020FFF78DFFE6
:100FB0002855641CE4B2B442F3D3FFF7DEFE2046AA
:100FC00081E72DE9F0411D4616460F468046002474
:100FD000FFF7B7FE4046FFF74DFFFFF7EBFE67B1A7
:100FE0003846FFF747FFFFF7E5FE06E0285DFFF70D
:100FF00041FFFFF7DFFE641CE4B2B442F6D3FFF713
:10100000BCFE01205FE710B51446FFF78EFF20708D
:10101000012010BD07B502AB0122FFF7D2FF0EBDC4
:101020002DE9F84314461E460D4680466A46089F41
:10103000FFF7E9FF00281BD0621CFF2000FA02F135
:10104000C4F108023244521ED0400143C6F10800E8
:101050008740FAB2C4F10700C2409DF80000084082
:1010600010438DF80000C2B229464046FFF7D2FF78
:10107000BDE8F883F8B515461C460E4607466A4695
:10108000FFF7C1FF01209DF80010A8400CB10143FB
:1010900000E08143CAB28DF8002031463846FFF7A0
:1010A000B9FFF8BD00040240000C0240008041423C
:1010B0006000002008B501466B460222EE20FFF7D3
:1010C00053FF9DF800009DF8011041EA002008BD83
:1010D00070B50024FE4EA22505EB4400C0B2FFF718
:1010E000E9FF26F81400641CE4B2062CF4D370BDAA
:1010F000F84909280AD2DFE800F0050907090B09B9
:101100000D090F00012200E002220A7048707047AA
:101110000322FAE70522F8E70A22F6E70246002151
:10112000EE20FFF777BF1E20F8E710B51E20FFF76F
:10113000F5FF0820FFF7DCFF6420FFF7D0FDBDE8D6
:101140001040C5E710B553EC112B51EC100B00F01B
:1011500032FB41EC100B9FEDE01B00F099FD9FED81
:10116000E01B51EC100B53EC112B00F0AFFA9FED8C
:10117000DE1B53EC112B00F0ACFA41EC100B10BD50
:101180002DE9F14FD348D24E4FF00009D0F818B0F6
:1011900031894069494200EB0127F188FC17A1FB26
:1011A000070309FB073201FB0421A24680224B46BC
:1011B00000F0B7F97288130C120410EB020841EB2F
:1011C0000305B188A1FB070309FB073201FB0421DA
:1011D0004FF48072002300F0A4F93288530CD2033C
:1011E0008618009841EB0304012855D1B848002324
:1011F0004189A1FB070C09FB07C201FB0A214FF43F
:10120000000200F08EF94FF4FA614018B14A4FF035
:101210000001B0F5FA6FC2E90811C2E90A1111DA4A
:10122000A0F5FA61494301EB810101EBD1735B1039
:10123000DF17C2E90837CB1701EB93718910CB1781
:10124000C2E90A1340F2DC51C8421ADA00F2DC505B
:101250004043D2E9087CC0EBC001CB17C91943EB6E
:101260000C03C2E9081300EB400101EBC00000EBE6
:10127000D070D2E90A374010C117C0187941C2E9CD
:101280000A01D2E90801B8EB000865EB0105D2E9D3
:101290000A01361A64EB0104ABFB060309FB0632B4
:1012A0000BFB04214FF40012002300F03AF9B0EBDD
:1012B000080061EB05014FF40042002300F031F912
:1012C000BDE8F88F08B501466B460322EE20FFF714
:1012D0004BFE9DF800209DF801009DF802101204BD
:1012E00042EA0020084308BD0020EBE72DE9F04169
:1012F0007749784D07460A896869524200EB022413
:1013000049890026A1FB040306FB0433E21701FB15
:1013100002314FF40002334600F003F94FF4FA6152
:101320004018AE60012F08D1B0F5FA6F05DA6443BA
:10133000E11704EB5101C90FA960A968401A00F038
:10134000A9FA9FED6B1B53EC112B00F034FA41EC22
:10135000100BBDE8F0810020B4E72DE9F0415D4CB1
:1013600007462DED068B90460E46634D9FED638B31
:101370006068D8B32146012809784CD0022873D080
:10138000032830D1084600F096FA41EC1A0B206988
:1013900000F080FA41EC190B286800F08CFA53EC4D
:1013A000182B00F096F953EC192B00F08CF953EC44
:1013B0001A2B00F0ADFA16D8FFF796FFA0610020B7
:1013C000FFF7DEFE306000F065FA41EC100B9FED98
:1013D0004D1BFFF7B7FE51EC100B00F0B1FAC8F847
:1013E000000000206060BDEC068BB2E7FFE7012043
:1013F0006060286800F05FFA53EC182B00F069F980
:1014000000F066FAE0606078BDEC068B5030C0B248
:10141000BDE8F04182E6084600F04DFA41EC1A0BB7
:10142000E06800F037FA41EC190B286800F043FA45
:1014300053EC182B00F04DF953EC192B00F043F945
:1014400053EC1A2B00F064FACDD802206060FFF74D
:1014500082FF60610020FFF749FF51EC100B00F0A4
:101460006FFA3860BFE7FFE7286800F024FA53EC12
:10147000182B00F02EF900F02BFA20616078403034
:10148000C0B2FFF74BFE0320ACE71248407870472C
:1014900010B551EC110B2DED028BB0EE408AF0EE41
:1014A000608A9FED110B53EC102B00F084F99FED37
:1014B0000C1B53EC112B00F009F941EC100B9FEDC4
:1014C000131B00F0E5FB53EC102B51EC180B21E043
:1014D0009C0000206800002000000060955BC83F71
:1014E000000000000000F03F0000000040A5E540C3
:1014F0000000000000005940240C0040FCA9F1D27B
:101500004D62503F00000000D0BCF840000000C019
:101510001E05154000F04FF9BDEC028B41EC100B9D
:1015200010BD2DE9F0410024061B254671F100068F
:1015300005DA01240027D0EB070067EB0101161E36
:1015400073F1000605DA0027D2EB0702012567EBED
:10155000030300F011FA86460E4617469C46AC423D
:1015600004D00025D0EB050E65EB010624B1002068
:10157000D2EB000760EB030C704631463A466346F7
:10158000BDE8F0812DE9FE4F804681EA0300C00FDF
:101590000C46009021F0004123F00045B8EB02001A
:1015A000A94105D24046214690461C460B460246BC
:1015B00023F00040104347D0270DC7F30A00C3F3C0
:1015C0000A510290401A019040286BDAC3F31300CD
:1015D00040F4801B0098924620B10023D2EB030A0E
:1015E00063EB0B0B01985946C0F14002504600F0E6
:1015F000F4F906460D4650465946019A00F00CFA99
:1016000010EB08006141002487EA115284EAE77375
:101610001A4340D0009A62B3019A012A4FEA075256
:1016200015DC001B61EB02014FF0004202EA075299
:10163000CDE90042001C41F5801132462B4600F0F6
:1016400043FA03B0BDE8F08F40462146F9E7001B9E
:1016500061EB0201001C41F5801300185B4120186A
:10166000A2F5001747EB030140EAD570B6196D41AA
:1016700011E06D084FEA360645EAC0754FEA075299
:10168000001B61EB0201001C41F5801149084FEA83
:1016900030000019514132462B4603B0BDE8F04FEF
:1016A00000F003BA0098012240000023D0EB0202B0
:1016B00063EBE073009821464FEAE074B8EB00005A
:1016C00061EB0401E9E783F000435BE781F000414F
:1016D00058E72DE9FE4F81EA030404F0004421F0AD
:1016E000004100944FF0000B23F0004350EA010446
:1016F0005ED052EA03045BD0C3F30A54C1F30A5527
:101700002C44A4F2F3340194A0FB0254C1F313015E
:1017100041F48011C3F3130343F4801301FB02442B
:1017200000FB034E840A970A44EA815447EA835730
:10173000A4FB076802958D0A05FB07854FEA932CE9
:1017400004FB0C542705029D4FEA065847EA16375A
:10175000B5EB08056EEB070C870E920E47EA811772
:1017600042EA8312A7FB0201B6EB0B0164EB000413
:101770002B0D43EA0C335E1844EB1C50DA465146FD
:10178000E7FB0201C5F313044FEA0B3343EA14539A
:101790004FEA0432019C43EA0603A4F10C040294CC
:1017A000009CCDE900B400F08FF903B0BDE8F08FE4
:1017B00000200146F9E72DE9F04D81EA030404F029
:1017C000004B21F0004514464FF0000A23F0004181
:1017D00050EA050220D054EA01021DD0C5F30A5791
:1017E0000246C5F31303C1F31300C1F30A5640F4D4
:1017F000801543F48013A7EB0608101BD64608F2A9
:10180000FD3873EB050002D308F1010801E09218DE
:101810005B41B8F1000F03DA00200146BDE8F08D0E
:1018200000204FF48011064684460EE0171B73EB30
:10183000050705D3121B63EB050306434CEA010CB5
:1018400049084FEA300092185B4150EA0107EDD198
:1018500052EA030012D082EA040083EA0501084339
:1018600005D0101BAB4106D20122002306E0002266
:101870004FF0004302E06FF0010253101AEB060034
:101880004CEB085110EB0A0041EB0B01BDE8F04DA9
:1018900000F00BB90EB5C10F80EAE0700844CA072A
:1018A000002140F233438DE80E000A460B4600F05B
:1018B0000BF903B000BD0EB540F233410291002197
:1018C000CDE900110A460B4600F0FEF803B000BD5A
:1018D00070B5C1F30A5201F000450024C1F31301B1
:1018E00040F2FF3341F480119A4201DA002070BDCA
:1018F00040F233439A42A2F2334203DC524200F0F8
:101900007BF800E090402C43F1D0404270BD0000D5
:1019100030B5041E71F1000404DB4FF00044404276
:1019200064EB0101141E73F1000405DB1C464FF04B
:101930000043524263EB0403994208BF904230BD1A
:1019400001F0004330B421F0004150EA010206D01A
:101950000A0DA2F56072C1F31301002A02DC30BC4B
:1019600000207047440F44EAC104C100E01830BCB5
:1019700000EBC25000F062B82DE9F05F0546002090
:1019800092469B4688460646814640241BE02846F0
:1019900041464746224600F02FF853465A46C01AA1
:1019A000914110D311461846224600F016F82D1A20
:1019B00067EB01084F4622460120002100F00DF898
:1019C00017EB00094E41201EA4F10104DFDC48465C
:1019D00031462A464346BDE8F09F202A04DB203AE0
:1019E00000FA02F1002070479140C2F1200320FA72
:1019F00003F3194390407047202A04DB203A21FA70
:101A000002F00021704721FA02F3D040C2F1200217
:101A10009140084319467047202A06DBCB17203A2D
:101A200041FA02F043EAE07306E041FA02F3D040E3
:101A3000C2F1200291400843194670470029A8BF0F
:101A40007047401C490008BF20F00100704710B4E7
:101A5000B0FA80FC00FA0CF050EA010404BF10BC9C
:101A6000704749B1CCF1200421FA04F411FA0CF1C9
:101A700018BF012121430843A3EB0C01CB1D4FEA02
:101A800000614FEA102042BF002010BC704700EBFD
:101A9000C35010440029A4BF10BC7047401C49002B
:101AA00008BF20F0010010BC704710B5141E73F180
:101AB000000408DA401C41F1000192185B411A430E
:101AC00001D120F0010010BD2DE9F04D92469B465A
:101AD00011B1B1FA81F202E0B0FA80F22032904600
:101AE000FFF77BFF04460F4640EA0A0041EA0B017C
:101AF00053465A46084313D0114653EA010019D001
:101B0000C8F140025046FFF777FF05460E465046A3
:101B100059464246FFF761FF084305D0012004E023
:101B200020463946BDE8F08D0020054346EAE076C0
:101B30002C4337430A986305E40AA0EB080000220F
:101B4000FD0A44EA47540A3002D500200146E9E77D
:101B5000010510196941DDE9084500196941BDE831
:101B6000F04DA2E770B521F0004303430CD0C1F360
:101B70000A550024D5EB040564EB0403D617AD1A0F
:101B8000B34102DB0020014670BD201841EB025139
:101B900070BD0000064C074D06E0E06840F0010310
:101BA00094E8070098471034AC42F6D3FEF7F0FAF9
:101BB000C82B0008E82B00082DE9F04D00231A4639
:101BC0001B1A8A4103DB00200146BDE8F08DC1F3FA
:101BD0000A52C1F3130141F480154FF0000BD107F5
:101BE00002D100186D41521E0027044640F2FF1139
:101BF000384601EB620A3E468046024600204FF41A
:101C00008011FFF7F9FEC2197141BB1846EB0100C4
:101C1000B4EB030C75EB000C04D3E41A65EB000580
:101C200017460E46241908F101006D4180463428FC
:101C3000E3DDF91946EB0600091BA84103D24FF07A
:101C4000FF32134601E0002213461BEB070046EB70
:101C50000A51BDE8F04DFFF728BF03B401984100D9
:101C6000009850EAC12018BF04204A0D18BF40F068
:101C7000010040F2FF72B2EB515F08BF40F002007A
:101C8000012808BF052002B07047000000000000D6
:101C90002DE9F04D2DED040B2DED0E8B96B0DDE909
:101CA0002550279CDDF890A025F0004624F0004840
:101CB000BAF1000F14BF0121002101EB4502FC49DC
:101CC00053184A1093422AD3002814BF012300233B
:101CD00003EB44030B44F7498B4220D358EA00013D
:101CE0009FEDF59B76D0DFF8D8B35D4503D1BAF10F
:101CF000000F05D188E0BAF1000F08BF002100D025
:101D0000012101EB450111F5001F08D8002814BF7F
:101D10000121002101EB440111F5001F0BD99DEDBC
:101D2000261B9DED240B16B0BDEC0E8B04B0BDE858
:101D3000F04D00F069BE0027002DBCBFE149884589
:101D400021DAE1498845A8BF02271CDAC3451ADC1D
:101D5000DE4901EB2851142908DDC1F1340220FAD3
:101D600002F101FA02F282420DD108E058B9C1F144
:101D7000140228FA02F101FA02F2424503D101F0FD
:101D80000101C1F1020756EA0A0124D1002C22DA2E
:101D9000002D18BF022F01D0012F0AD0022000F021
:101DA0007FFE16B0BDEC0E8B04B0BDE8F04D00F028
:101DB00013BE022000F074FE00F00EFE51EC100B7A
:101DC00081F0004141EC100B16B0BDEC0E8B04B05D
:101DD000BDE8F08D18E09FEDBEAB9FEDBF8B0028F6
:101DE00071D1B848804522D105F1804010F58010AE
:101DF00008BFBAF1000F07D0B3450ADC002CA8BF1A
:101E00009DED260BE0DA0DE0B0EE490AF0EE690A2E
:101E1000DAE7002C06DA9DED260B51EC100B81F071
:101E200000416FE0AE48784490ED000BCCE7D84518
:101E30004DD1002C48DA2EB186423AD1BAF1000FCA
:101E400042D126E0BAF1000F13D0022000F028FEA4
:101E500000F0F6FD8DED020B9DED240B8DED000BDA
:101E600010EE900A039961F31E0003909DED020BA2
:101E7000AAE78DED02AB9DED240B1AEE901A10EE41
:101E8000900A8DED000B61F31E0003909DED020B97
:101E90009AE78DED028B9DED240B18EE901A10EE53
:101EA000900A8DED000B61F31E0003909DED020B77
:101EB0008AE709DA9DED240B51EC190B53EC102B3A
:101EC000FFF779FC1EE020E09DED240B7CE78642C5
:101ED0001BDAB4F1804F0DD0A4F10050B0F1FF50E7
:101EE00013D1002D11DB9DED240B51EC100B00F0F4
:101EF000E9FD07E09DED240B53EC102B51EC100B8A
:101F000000F0C2BC41EC100B5EE79DED240B51ECE0
:101F1000100B00F0CBFDBAF1000FCDE90E0142D15C
:101F20009FED710B46B3A6F1E040B0F17F600CD09D
:101F30005E4538D1002D00DAA7B3022F0CBF012077
:101F40004FF0FF30FFF7A6FCDCE7002D01DD002C91
:101F50000DDA002D01DD002C1FDB002D16DA002C20
:101F600014DB012F08BF9FED620B3FF42DAFB0EEE5
:101F70004A0AF0EE6A0A27E7022F18BF002D0CD09C
:101F8000012F0AD1002DFFF61FAF06E0002DB8BFCC
:101F9000002C08DA012F3FF417AFB0EE480AF0EE3C
:101FA000680A11E71BE0012000EBE57050EA070129
:101FB00015D0791EB0EE498AF0EE698A084308BF51
:101FC0009FED4D8B4E480025804570DD4D494E48B4
:101FD000884514DDB0420DDB002C19DB2FE0012019
:101FE00000F05EFD16B0BDEC0E8B04B0BDE8F04D08
:101FF00000F016BDB34502DC002C09DC1FE0864270
:1020000002DA002C1BDA03E05E452BDD002C16DD26
:10201000022000F045FD00F013FD8DED020B53ECA6
:102020001A2B51EC180BFFF754FBCDE90001039973
:10203000019861F31E0003909DED020BC4E602209F
:1020400000F02EFD00F00CFD10EE901A18EE900A34
:102050008DED020B8DED008B61F31E0003909DED65
:10206000020BB1E69DED0E0B53EC192B51EC100B4E
:10207000FFF729FB9FED260BCDE9080153EC102B50
:102080009DED080B51EC100BFFF723FB9FED221B7E
:1020900053EC112BFFF71AFB9DED081B53EC112B92
:1020A000FFF717FB9FED1E1B53EC112B3CE08CE060
:1020B000FFFF1F00FFFF0F00000000000000F03FC7
:1020C0000000F03F0000F07F0000404301FCFFFFF4
:1020D000000000000000F07F000000000000000091
:1020E000960D0000000000000000000000000080CD
:1020F000000000000000F0FF000000000000F0BF42
:102100000000E0410000F043FFFFEF3F000000004F
:10211000000000000000D03F555555555555D53F9E
:10212000000000000000E03FFFF7D0FA9DED080B33
:1021300041EC1A0B53EC102B51EC100BFFF7C9FAC2
:1021400053EC1A2BFFF7C5FA41EC1A0B9FEDFE0B6F
:1021500053EC102B9DED080B51EC100BFFF7B9FA67
:1021600041EC1B0B9FEDFA0B51EC1A0B53EC102BAF
:10217000FFF7AFFA41EC1A0B9FEDF70B53EC102B66
:102180009DED080B51EC100BFFF7A3FA53EC1A2B43
:10219000FFF799FA41EC1A0B51EC1B0B53EC1A2B7D
:1021A000FFF7F0F90690CDE906519DED060B53ECD3
:1021B0001B2B51EC100BFFF786FA53EC1A2BFFF791
:1021C00085FA41EC100B00F0A1B90020B6F5801F94
:1021D0000EDA9FEDE30B53EC102B9DED0E0B51EC43
:1021E000100BFFF776FACDE90E016FF034000E46C2
:1021F00000EB2650A0F2FF37C6F31300DA4940F097
:102200007F6646F040568842D8BF002408DDD74993
:102210008142C8BF012403DC0024A6F580167F1C80
:10222000D348784400EBC4000F9690ED00CB9DEDB1
:102230000E0B53EC1C2B51EC100BFFF744FA9DEDE9
:102240000E0B41EC1B0B53EC1C2B51EC100BFFF74E
:1022500099F941EC100B51EC190B53EC102BFFF7D3
:10226000AAFA41EC1D0B51EC1B0B53EC1D2BFFF795
:1022700030FA41EC1A0BBF488DED10AB7844109545
:1022800090ED000B4FF0005040EA660000EB8440F8
:102290008DED080B00F5002009909DED080B53EC27
:1022A0001C2B51EC100BFFF70EFA9DED0E1B53EC9F
:1022B000112BFFF70BFA41EC100B53EC102B9DED9B
:1022C000100B51EC100BFFF704FA9DED080B41ECDD
:1022D0001C0B53EC102B9DED100B51EC100BFFF76A
:1022E000F8F953EC1B2BFFF7F1F953EC1C2BFFF71C
:1022F000EAF953EC1D2BFFF7ECF941EC1C0B53EC06
:102300001A2B51EC1A0BFFF7E4F941EC1B0B9A481E
:102310000621B0EE4B0AF0EE6B0A784400F0E0FACA
:10232000B0EE401AF0EE601AB0EE41DAF0EE61DA8B
:1023300053EC1B2B51EC1B0BFFF7CBF953EC1D2B74
:10234000FFF7C7F99DED100B41EC1B0B53EC1A2B5B
:1023500051EC100BFFF716F953EC1C2BFFF7B9F9F2
:1023600053EC1B2BFFF70EF99DED100B41EC1B0BF3
:1023700053EC102B51EC100BFFF7ABF941EC1D0B9C
:102380009FED7FEB53EC1E2BFFF7FCF853EC1B2B60
:10239000FFF7F8F80890CDE908519DED080B53ECD4
:1023A0001E2B51EC100BFFF78EF953EC1D2BFFF792
:1023B0008AF953EC1B2BFFF789F99DED080B41ECD3
:1023C0001D0B53EC102B9DED100B51EC100BFFF778
:1023D00080F941EC1B0B53EC1A2B51EC1D0BFFF752
:1023E00078F99DED080B41EC1A0B53EC102B51ECD6
:1023F0001C0BFFF76EF953EC1A2BFFF7C3F841ECF7
:102400001A0B51EC1B0B53EC1A2BFFF7BBF80C907B
:10241000CDE90C519DED0C0B53EC1B2B51EC100B2B
:10242000FFF751F953EC1A2BFFF750F941EC1B0B56
:102430009FED550B53EC102B9DED0C0B51EC100B3D
:10244000FFF747F941EC1A0B9FED510B51EC1B0BB9
:1024500053EC102BFFF73DF941EC1B0B9FED4E0B9E
:1024600053EC102B9DED0C0B51EC100BFFF731F9D9
:1024700053EC1B2BFFF786F841EC100B48487844CF
:1024800000EBC40090ED001B51EC100B53EC112B32
:10249000FFF778F841EC1B0B3846FFF7FBF9CDE965
:1024A000080153EC1B2B51EC1A0BFFF76BF841ECB6
:1024B000100B3C48784400EBC40090ED00CB51EC8D
:1024C000100B53EC1C2BFFF75DF89DED081B53EC34
:1024D000112BFFF757F80690CDE906519DED080B3B
:1024E00053EC102B9DED060B51EC100BFFF7EBF8A6
:1024F00053EC1C2BFFF7E7F853EC1A2BFFF7E3F82C
:1025000053EC1B2BFFF7E2F841EC100B9DED261B63
:1025100053EC102B8DED001B00959DED260B51EC1F
:10252000100BFFF7D6F89DED000B41EC1A0B53ECA6
:10253000102B9DED260B51EC100BFFF7C4F89DED11
:10254000061B53EC112B2FE0000000604715F73FEE
:10255000FE822B654715F73F44DF5DF80BAE543E16
:1025600000000000000040438E9803007AB60B0084
:1025700012090000400900004A08000000000000A5
:102580000000000000000840000000E009C7EE3F26
:10259000FD033ADC09C7EE3FF5015B14E02F3EBEB8
:1025A000D606000090060000FFF793F853EC1A2BB4
:1025B000FEF7E8FF9DED060B41EC1A0B53EC102BD8
:1025C0009DED000B51EC100BFFF783F8CDE90C01EA
:1025D0009DED0C0B51EC1A0B53EC102BFEF7D2FFB8
:1025E000CDE902010C46AA498C422FDB611A08434F
:1025F00018D19DED0C0B53EC102B9DED020B51EC03
:10260000100BFFF760F841EC1B0B9FEDA30B51EC97
:102610001A0B53EC102BFEF7B5FF53EC1B2BFFF7F7
:1026200077F92DD2022000F03BFA00F009FA10EE03
:10263000901A18EE900A8DED020B8DED008B61F370
:102640001E0003909DED020BFFF7BEBB944A24F0E1
:102650000041914214D39349214408437FF4EFACE5
:102660009DED0C0B53EC102B9DED020B51EC100B60
:10267000FFF729F853EC1A2BFFF74AF97FF6DFAC86
:1026800024F000408849894A002601EB205182420B
:102690002BDA481C4FF4801121FA00F02044844AC0
:1026A000C0F30A517A44A1F2FF3192ED000B814A46
:1026B0008DED080BCA4020EA0202C0F3130040F47B
:1026C0008010C1F1140120FA01F60992002CB8BF64
:1026D00076429DED080B53EC102B9DED0C0B51EC4D
:1026E000100BFEF7F0FFCDE90C019DED0C0B51EC4A
:1026F0001A0B53EC102BFEF745FF9FED6F0B089064
:10270000CDE9085153EC102B9DED080B51EC100B4B
:10271000FEF7DFFF41EC1B0B9FED690B53EC102B19
:102720009DED080B51EC100BFEF7D3FF9DED0C0B4C
:1027300041EC1C0B53EC102B9DED080B51EC100BD6
:10274000FEF7C1FF53EC1A2BFEF7C0FF9FED5E1B97
:1027500053EC112BFEF7BDFF53EC1C2BFEF712FFC1
:1027600041EC1A0B51EC1B0B53EC1A2BFEF70AFF32
:10277000CDE902019DED020B53EC1B2B51EC100B2C
:10278000FEF7A1FF53EC1A2BFEF7A0FF9DED020B05
:1027900041EC1A0B53EC102B51EC100BFEF799FF88
:1027A000CDE908014A489DED080B0521784400F069
:1027B00097F89DED081B51EC100B53EC112BFEF715
:1027C00088FF9DED021B53EC112BFEF77FFFCDE937
:1027D00006019DED020B53EC1A2B51EC100BFEF78A
:1027E00078FF53EC1A2BFEF7CDFE9FED3B0B41EC2F
:1027F0001A0B53EC102B9DED060B51EC100BFEF752
:1028000062FF9DED060B41EC1B0B53EC102B9DED75
:10281000020B51EC100BFEF75CFF53EC1B2BFEF789
:10282000CAFF53EC1A2BFEF74EFF9DED021B53EC33
:10283000112BFEF748FF53EC192BFEF747FFCDE9AC
:10284000020101EB065001150029C8BF039015DCF9
:102850009DED020B324651EC100BFFF783F9FFF7A9
:10286000FCF9042808BF00F0FBF832469DED020B8E
:1028700051EC100BFFF776F9CDE902019DED020B4B
:1028800051EC180B53EC102BFEF723FFFFF73ABB6C
:102890000000904000000000FE822B654715973C29
:1028A00000CC904000346F3F01FCFFFF0000E03F90
:1028B00018050000FFFF0F0000000000432EE63F58
:1028C000396CA80C615C20BEEF39FAFE422EE63F5F
:1028D000E8030000000000000000000000000040CD
:1028E00070B504462DED028B4D1E00EBC500B0EE19
:1028F000408AF0EE608A90ED000B35F0060017D0AC
:1029000053EC182B51EC100BFEF7E3FE41EC100BCF
:102910006D1E04EBC50090ED001B51EC100B53EC49
:10292000112BFEF72FFE41EC100B35F00600E7D11E
:10293000022D36D0042D1CD0062D1CBFBDEC028B01
:1029400070BD53EC182B51EC100BFEF7C2FE94ED4A
:102950000A1B53EC112BFEF715FE53EC182BFEF758
:10296000B8FE94ED081B53EC112BFEF70BFE41EC67
:10297000100B53EC182B51EC100BFEF7AAFE94ED44
:10298000061B53EC112BFEF7FDFD53EC182BFEF745
:10299000A0FE94ED040B53EC102BFEF7F3FD41EC7D
:1029A000100B53EC182B51EC100BFEF792FE94ED2C
:1029B000021B53EC112BFEF7E5FD53EC182BFEF731
:1029C00088FE94ED001B53EC112BFEF7DBFDBDECF4
:1029D000028B41EC100B70BD9FED070B10B553EC53
:1029E000102B9FED070B51EC100BFEF7E4FE41ECB2
:1029F000100B10BD000000000000000000000000EF
:102A0000000000000000F03F10B553EC112B51EC1A
:102A1000100BFEF7B7FD41EC100B10BD00000000DD
:102A20009FED050B10B553EC102B51EC100BFEF77E
:102A3000C2FE41EC100B10BD0000000000000000C1
:102A40009FED050B10B553EC102B51EC100BFEF75E
:102A500040FE41EC100B10BD0000000000000070B3
:102A60009FED050B10B553EC102B51EC100BFEF73E
:102A700030FE41EC100B10BD000000000000001003
:102A800002E008C8121F08C1002AFAD17047704737
:102A9000002001E001C1121F002AFBD17047000095
:102AA00001490860704700009800002082B0CDE91D
:102AB000000121F0004001909DED000B02B051ECAF
:102AC000100B704700B52DED048B83B041EC190B52
:102AD000FFF772F841EC180B18EE100A18EE901A76
:102AE0008DED008B002818BF0120084320F0004026
:102AF000C0F17F6000F1E040C00F14D019EE101A51
:102B000019EE900A8DED009B002918BF01210843A2
:102B100020F00040C0F17F6000F1E040C00F04BF32
:102B20000120FFF7BDFF51EC180B03B0BDEC048B87
:102B300000BD000000000000000000000000F03FA9
:102B4000000000000000F83F00000000000000004E
:102B50000000004003B8E23F000000000000000059
:102B600006D0CF43EBFD4C3E033333333333E33FE7
:102B7000FFAB6FDBB66DDB3F4D268F515555D53F13
:102B800001411DA96074D13F65DBC9934A86CD3FE1
:102B9000EF4E454A287ECA3F3E5555555555C53FCF
:102BA00093BDBE166CC166BF2CDE25AF6A56113FC1
:102BB000F16BD2C541BDBBBED0A4BE726937663EC3
:102BC0000000000000000000E82B000800000020CA
:102BD0009C000000802A0008842C00089C00002033
:102BE0000C040000902A00080000204100000000B2
:102BF00000000000000000000000000000000000D5
:102C000000000000000000000000000000000000C4
:102C10000000000000000000007A030A000000002D
:102C2000000000000102030406070809000000007C
:102C30000000000000000000010203040102030480
:102C40000607080900000000000000000000000066
:102C50000000000000000000000000000000000074
:102C60000000000000000000000000000000000064
:102C70000000000000000000000000000000000054
:042C80000000000050
:040000050800018965
:00000001FF
