:020000040800F2
:100000000000022091D10008C9020008D7020008B0
:10001000DD020008E3020008E90200080000000019
:10002000000000000000000000000000EF020008D7
:10003000FD020008000000000B030008190300087F
:10004000D5D10008D5D10008D5D10008D5D10008F8
:10005000D5D10008D5D10008D5D10008D5D10008E8
:10006000D5D10008D5D10008D5D10008D5D10008D8
:10007000D5D10008D5D10008D5D10008D5D10008C8
:10008000D5D10008D5D10008D5D10008D5D10008B8
:10009000D5D10008D5D10008D5D10008D5D10008A8
:1000A000D5D10008D5D10008D5D10008D5D1000898
:1000B000D5D10008D5D10008D5D10008D5D1000888
:1000C000D5D10008D5D10008D5D10008D5D1000878
:1000D000D5D10008D5D10008D5D10008D5D1000868
:1000E000D5D10008D5D10008D5D10008D5D1000858
:1000F000D5D10008D5D10008D5D10008D5D1000848
:10010000D5D10008D5D10008D5D10008D5D1000837
:10011000D5D10008D5D10008D5D10008D5D1000827
:10012000D5D10008D5D10008D5D10008D5D1000817
:10013000D5D10008D5D10008D5D10008D5D1000807
:10014000D5D10008D5D10008D5D10008D5D10008F7
:10015000D5D10008D5D10008D5D10008D5D10008E7
:10016000D5D10008D5D10008D5D10008D5D10008D7
:10017000D5D10008D5D10008D5D10008D5D10008C7
:08018000D5D10008D5D100081B
:10018800D8D100080000002024000020240000200E
:100198002C00002080B582B000AF144A134B1B6BB3
:1001A80043F0080313634FF470433B6001233B7132
:1001B8000023BB7103237B710023FB713B46194667
:1001C8000B4800F077FA41F2883000F049F84FF414
:1001D8007041074800F086FB41F2883000F040F893
:1001E8004FF47041024800F08CFBECE70038024005
:1001F800000C024080B582B000AF78600121012078
:1002080009F0B0FE4FF0804353221A854FF0804228
:100218007B68013BD3624FF0804300225A624FF063
:10022800804301229A824FF0804300221A824FF0C5
:10023800804301221A8000BF4FF080431B8A9BB283
:10024800002BF9D0054B00229A800021012009F0EB
:1002580089FE00BF0837BD4680BD00BF00100040C2
:1002680080B582B000AF0346FB800121102009F061
:1002780079FE124B42F2CF021A85104AFB88013BE5
:10028800D3620E4B00225A620C4B01229A820B4B0E
:1002980000221A82094B01221A8000BF074B1B8AD1
:1002A8009BB2002BFAD0054B00221A8000211020A7
:1002B80009F058FE00BF0837BD4680BD0010004059
:1002C80080B400AF00BFBD465DF8047B704780B4C2
:1002D80000AFFEE780B400AFFEE780B400AFFEE7F2
:1002E80080B400AFFEE780B400AF00BFBD465DF844
:1002F800047B704780B400AF00BFBD465DF8047B47
:10030800704780B400AF00BFBD465DF8047B7047FE
:1003180080B400AF064B01221A60064B1B680133FC
:10032800044A136000BFBD465DF8047B704700BFF8
:10033800280000202400002080B500AF164A164B84
:10034800D3F8883043F47003C2F88830134A134B4B
:100358001B6843F001031360104B00229A600F4A98
:100368000E4B1B6823F0847323F4803313600B4B0C
:100378000B4A5A60094A094B1B6823F4802313600F
:10038800064B0022DA6000F089F8034B4FF0006258
:100398009A6000BF80BD00BF00ED00E00038024059
:1003A8001030002480B487B000AF00233B610023E5
:1003B8007B610223FB600023BB6002237B60324B1E
:1003C8009B6803F00C033B613B69042B07D0082BA7
:1003D80009D0002B3DD12D4B2D4A1A603DE02B4B07
:1003E8002C4A1A6039E0284B5B689B0D03F0010327
:1003F800BB60254B5B6803F03F037B60BB68002B49
:100408000CD0244A7B68B2FBF3F31F4A5268920966
:10041800C2F3080202FB03F37B610BE01C4A7B6812
:10042800B2FBF3F3184A52689209C2F3080202FBBE
:1004380003F37B61144B5B681B0C03F0030301336C
:100448005B00FB607A69FB68B2FBF3F30F4A136049
:1004580003E00E4B0E4A1A6000BF0B4B9B681B094A
:1004680003F00F030C4AD35CDBB23B61074B1A68FD
:100478003B6922FA03F3054A136000BF1C37BD46E7
:100488005DF8047B704700BF003802400000002080
:100498000024F40000127A000400002080B483B025
:1004A80000AF00237B6000233B60364A354B1B6856
:1004B80043F480331360334B1B6803F400333B6011
:1004C8007B6801337B603B68002B03D17B68B3F505
:1004D800A04FF0D12B4B1B6803F40033002B02D044
:1004E80001233B6001E000233B603B68012B42D1C4
:1004F800244A244B1B6C43F080531364224A224B3A
:100508001B6843F4404313601E4A1E4B9B6893606C
:100518001C4A1C4B9B6843F400439360194A194BCF
:100528009B6843F4A0539360164B184A5A60154AC7
:10053800144B1B6843F08073136000BF114B1B689A
:1005480003F00073002BF9D0114B40F205721A60CA
:100558000C4A0C4B9B6823F003039360094A094B30
:100568009B6843F00203936000BF064B9B6803F04F
:100578000C03082BF9D100BF0C37BD465DF8047B8E
:10058800704700BF00380240007000400854400720
:10059800003C024080B582B000AF78607B683C4A7E
:1005A800934208D10121012009F01CFD00210120FE
:1005B80009F018FD68E07B68364A934208D10121AA
:1005C800022009F00FFD0021022009F00BFD5BE07D
:1005D8007B68314A934208D10121042009F002FDC9
:1005E8000021042009F0FEFC4EE07B682B4A934270
:1005F80008D10121082009F0F5FC0021082009F0A4
:10060800F1FC41E07B68264A934208D10121102081
:1006180009F0E8FC0021102009F0E4FC34E07B68D4
:10062800204A934208D10121202009F0DBFC002157
:10063800202009F0D7FC27E07B681B4A934208D1A9
:100648000121402009F0CEFC0021402009F0CAFC1D
:100658001AE07B68154A934208D10121802009F0ED
:10066800C1FC0021802009F0BDFC0DE07B68104A28
:10067800934209D101214FF4807009F0B3FC0021A5
:100688004FF4807009F0AEFC00BF0837BD4680BD4E
:10069800000002400004024000080240000C024032
:1006A800001002400014024000180240001C0240E2
:1006B8000020024080B487B000AF78603960002322
:1006C8007B6100233B610023FB6000237B6176E0B4
:1006D80001227B6902FA03F33B613B681A683B69B4
:1006E8001340FB60FA683B699A4265D17B681A68D7
:1006F8007B695B00032101FA03F3DB431A407B6843
:100708001A607B681A683B681B7919467B695B002D
:1007180001FA03F31A437B681A603B681B79012BC3
:1007280003D03B681B79022B2ED17B689A687B69C2
:100738005B00032101FA03F3DB431A407B689A60EC
:100748007B689A683B685B7919467B695B0001FAAC
:1007580003F31A437B689A607B685A687B699BB28B
:10076800194601238B40DB431A407B685A607B683B
:100778005B683A68927911467A6992B201FA02F294
:1007880092B21A437B685A607B68DA687B699BB2CD
:100798005B00032101FA03F3DB431A407B68DA604C
:1007A8007B68DA683B68DB7919467B695B0001FA8C
:1007B80003F31A437B68DA607B6901337B617B69E9
:1007C8000F2B85D900BF1C37BD465DF8047B7047E9
:1007D80080B483B000AF78607B684FF6FF721A6010
:1007E8007B6800221A717B6800225A717B6800229C
:1007F8009A717B680022DA7100BF0C37BD465DF83C
:10080800047B704780B485B000AF78600B467B806E
:100818004FF48033FB607A88FB681343FB60FA6807
:100828007B68DA617A887B68DA61FA687B68DA6102
:100838007B68DB69FB607B68DB69FB6000BF1437A2
:10084800BD465DF8047B704780B485B000AF786022
:100858000B467B800023FB737B681A697B881340F7
:10086800002B02D00123FB7301E00023FB73FB7B09
:1008780018461437BD465DF8047B704780B483B0D2
:1008880000AF78607B681B699BB218460C37BD4681
:100898005DF8047B704780B485B000AF78600B4684
:1008A8007B800023FB737B685A697B881340002B8D
:1008B80002D00123FB7301E00023FB73FB7B184686
:1008C8001437BD465DF8047B704780B483B000AF31
:1008D80078607B685B699BB218460C37BD465DF84B
:1008E800047B704780B483B000AF78600B467B8090
:1008F8007B687A881A8300BF0C37BD465DF8047B95
:10090800704780B483B000AF78600B467B807B680B
:100918007A885A8300BF0C37BD465DF8047B704760
:1009280080B483B000AF78600B467B8013467B7041
:100938007B78002B03D07B687A881A8302E07B6877
:100948007A885A8300BF0C37BD465DF8047B704730
:1009580080B483B000AF78600B467B807A887B6870
:100968005A6100BF0C37BD465DF8047B704780B400
:1009780083B000AF78600B467B807B685A697B88C0
:100988005A407B685A6100BF0C37BD465DF8047B4E
:10099800704780B485B000AF78600B467B80134603
:1009A8007B700023FB600023BB607A787B8803F0B0
:1009B80007039B0002FA03F3FB607B88DB089BB20A
:1009C80018467B88DB089BB21A467B68083253F8C6
:1009D80022207B8803F007039B000F2101FA03F311
:1009E800DB4302EA03017B6800F1080243F82210A6
:1009F8007B88DB089BB21A467B68083253F82220B2
:100A0800FB681343BB607B88DB089BB21A467B6894
:100A18000832B96843F8221000BF1437BD465DF8A4
:100A2800047B704780B582B000AF78607B68604A0D
:100A3800934208D10121012009F054FB0021012033
:100A480009F050FBAFE07B68B3F1804F08D101217A
:100A5800012009F027FB0021012009F023FBA2E077
:100A68007B68544A934208D10121022009F01AFBFD
:100A78000021022009F016FB95E07B684E4A93425C
:100A880008D10121042009F00DFB0021042009F000
:100A980009FB88E07B68494A934208D10121082074
:100AA80009F000FB0021082009F0FCFA7BE07B68D4
:100AB800434A934208D10121102009F0F3FA00219A
:100AC800102009F0EFFA6EE07B683E4A934208D1A5
:100AD8000121202009F0E6FA0021202009F0E2FA9D
:100AE80061E07B68384A934208D10121022009F06D
:100AF800F9FA0021022009F0F5FA54E07B68334A3C
:100B080093420AD101214FF4803009F0EBFA002119
:100B18004FF4803009F0E6FA45E07B682C4A9342AE
:100B28000AD101214FF4003009F0DCFA00214FF41A
:100B3800003009F0D7FA36E07B68264A93420AD19A
:100B480001214FF4802009F0CDFA00214FF48020D4
:100B580009F0C8FA27E07B681F4A934208D10121AF
:100B6800402009F09FFA0021402009F09BFA1AE082
:100B78007B681A4A934208D10121802009F092FA31
:100B88000021802009F08EFA0DE07B68144A934218
:100B980009D101214FF4807009F084FA00214FF443
:100BA800807009F07FFA00BF0837BD4680BD00BFDE
:100BB800000001400004004000080040000C004014
:100BC80000100040001400400004014000400140B3
:100BD800004401400048014000180040001C00404B
:100BE8000020004080B485B000AF786039600023F1
:100BF800FB817B681B88FB817B68294A934213D061
:100C08007B68284A93420FD07B68B3F1804F0BD0A2
:100C18007B68254A934207D07B68244A934203D0D5
:100C28007B68234A934208D1FB8923F07003FB8138
:100C38003B685A88FB891343FB817B681D4A9342B2
:100C48000CD07B681C4A934208D0FB8923F440737C
:100C5800FB813B681A89FB891343FB817B68FA890E
:100C68001A803B685A687B68DA623B681A887B6836
:100C78001A857B680A4A934203D07B68094A9342E3
:100C880004D13B689B7A9AB27B681A867B680122FA
:100C98009A8200BF1437BD465DF8047B704700BFD9
:100CA800000001400004014000040040000800402A
:100CB800000C0040001000400014004080B483B0D5
:100CC80000AF78607B684FF0FF325A607B68002283
:100CD8001A807B6800221A817B6800225A807B6810
:100CE80000229A7200BF0C37BD465DF8047B70473E
:100CF80080B483B000AF78600B467B8013463B809E
:100D08007B687A881A857B683A889A8200BF0C3794
:100D1800BD465DF8047B704780B485B000AF78604D
:100D28000B467B800023FB817B681B88FB81FB894A
:100D380023F07003FB81FA897B881343FB817B686E
:100D4800FA891A8000BF1437BD465DF8047B7047E6
:100D580080B483B000AF786039607B683A685A62C3
:100D680000BF0C37BD465DF8047B704780B483B084
:100D780000AF786039607B683A68DA6200BF0C3788
:100D8800BD465DF8047B704780B483B000AF7860DF
:100D98007B685B6A18460C37BD465DF8047B704774
:100DA80080B483B000AF78607B681B8D9BB2184617
:100DB8000C37BD465DF8047B704780B483B000AF44
:100DC80078600B46FB70FB78002B08D07B681B888B
:100DD8009BB243F002039AB27B681A8007E07B68F3
:100DE8001B889BB223F002039AB27B681A8000BF6B
:100DF8000C37BD465DF8047B704780B483B000AF04
:100E080078600B467B807B88002B08D07B681B882A
:100E18009BB243F004039AB27B681A8007E07B68B0
:100E28001B889BB223F004039AB27B681A8000BF28
:100E38000C37BD465DF8047B704780B483B000AFC3
:100E480078600B46FB70FB78002B08D07B681B880A
:100E58009BB243F080039AB27B681A8007E07B68F4
:100E68001B889BB223F080039AB27B681A8000BF6C
:100E78000C37BD465DF8047B704780B483B000AF83
:100E880078600B467B807B681B889BB223F0080345
:100E98009AB27B681A807B681B889AB27B88134356
:100EA8009AB27B681A8000BF0C37BD465DF8047B98
:100EB800704780B483B000AF78600B467B807B6856
:100EC8001B889BB223F440739AB27B681A807B68B4
:100ED8001B889AB27B8813439AB27B681A8000BF3A
:100EE8000C37BD465DF8047B704780B483B000AF13
:100EF80078600B46FB70FB78002B08D07B681B885A
:100F08009BB243F001039AB27B681A8007E07B68C2
:100F18001B889BB223F001039AB27B681A8000BF3A
:100F28000C37BD465DF8047B704780B485B000AFD0
:100F38007860396000237B810023FB810023BB811B
:100F48007B681B8C9BB223F001039AB27B681A84DE
:100F58007B681B8CFB817B689B88BB817B681B8BB8
:100F68007B817B8923F070037B817B8923F00303DA
:100F78007B813B681A887B8913437B81FB8923F03B
:100F88000203FB813B689A89FB891343FB813B6819
:100F98005A88FB891343FB817B681F4A934203D01D
:100FA8007B681E4A934223D1FB8923F00803FB8107
:100FB8003B68DA89FB891343FB81FB8923F004032F
:100FC800FB813B689A88FB891343FB81BB8923F427
:100FD8008073BB81BB8923F40073BB813B681A8A89
:100FE800BB891343BB813B685A8ABB891343BB81C6
:100FF8007B68BA899A807B687A891A833B689A6881
:101008007B685A637B68FA891A8400BF1437BD4627
:101018005DF8047B704700BF0000014000040140F8
:1010280080B485B000AF7860396000237B810023ED
:10103800FB810023BB817B681B8C9BB223F01003D0
:101048009AB27B681A847B681B8CFB817B689B88BF
:10105800BB817B681B8B7B817B8923F4E0437B818D
:101068007B8923F440737B813B681B881B029AB2FF
:101078007B8913437B81FB8923F02003FB813B6839
:101088009B891B019AB2FB891343FB813B685B88F0
:101098001B019AB2FB891343FB817B68224A934266
:1010A80003D07B68214A93422BD1FB8923F080032C
:1010B800FB813B68DB891B019AB2FB891343FB81E7
:1010C800FB8923F04003FB813B689B881B019AB294
:1010D800FB891343FB81BB8923F48063BB81BB89F4
:1010E80023F40063BB813B681B8A9B009AB2BB89CF
:1010F8001343BB813B685B8A9B009AB2BB8913434D
:10110800BB817B68BA899A807B687A891A833B6835
:101118009A687B689A637B68FA891A8400BF1437D7
:10112800BD465DF8047B70470000014000040140A3
:1011380080B485B000AF7860396000237B810023DC
:10114800FB810023BB817B681B8C9BB223F48073DB
:101158009AB27B681A847B681B8CFB817B689B88AE
:10116800BB817B689B8B7B817B8923F070037B81B0
:101178007B8923F003037B813B681A887B891343AF
:101188007B81FB8923F40073FB813B689B891B02ED
:101198009AB2FB891343FB813B685B881B029AB2B6
:1011A800FB891343FB817B68224A934203D07B6807
:1011B800214A93422BD1FB8923F40063FB813B68CE
:1011C800DB891B029AB2FB891343FB81FB8923F459
:1011D8008063FB813B689B881B029AB2FB8913439F
:1011E800FB81BB8923F48053BB81BB8923F4005363
:1011F800BB813B681B8A1B019AB2BB891343BB8125
:101208003B685B8A1B019AB2BB891343BB817B682D
:10121800BA899A807B687A899A833B689A687B68DE
:10122800DA637B68FA891A8400BF1437BD465DF813
:10123800047B7047000001400004014080B485B081
:1012480000AF786039600023BB8100237B810023D5
:10125800FB817B681B8C9BB223F480539AB27B681A
:101268001A847B681B8C7B817B689B88FB817B68ED
:101278009B8BBB81BB8923F4E043BB81BB8923F4EF
:101288004073BB813B681B881B029AB2BB8913431E
:10129800BB817B8923F400537B813B689B891B03BB
:1012A8009AB27B8913437B813B685B881B039AB2A4
:1012B8007B8913437B817B68124A934203D07B6806
:1012C800114A93420AD1FB8923F48043FB813B688E
:1012D8001B8A9B019AB2FB891343FB817B68FA89BD
:1012E8009A807B68BA899A833B689A687B681A6493
:1012F8007B687A891A8400BF1437BD465DF8047B81
:10130800704700BF000001400004014080B483B072
:1013180000AF78607B6800221A807B6800225A80C0
:101328007B6800229A807B6800229A607B68002292
:101338009A817B680022DA817B6800221A827B68A6
:1013480000225A8200BF0C37BD465DF8047B704707
:1013580080B485B000AF78600B467B8013463B8035
:101368000023FB6000237B817B68FB60FB681833EC
:10137800FB607B88012202FA03F37B817B681B8C6C
:101388009AB27B89DB439BB213409AB27B681A847A
:101398007B88002B02D07B88082B14D17B885B08C4
:1013A8009BB21A46FB681344FB60FA68FB6819682D
:1013B8004FF68F730B401360FB68FA6811683A8820
:1013C8000A431A6017E07B88043B9BB25B089BB218
:1013D8001A46FB681344FB60FA68FB68196848F60C
:1013E800FF730B401360FB68FA68126839880902BA
:1013F80089B20A431A6000BF1437BD465DF8047B02
:10140800704780B483B000AF786039607B683A6811
:101418005A6300BF0C37BD465DF8047B704780B443
:1014280083B000AF786039607B683A689A6300BF20
:101438000C37BD465DF8047B704780B483B000AFBD
:10144800786039607B683A68DA6300BF0C37BD465C
:101458005DF8047B704780B483B000AF7860396072
:101468007B683A681A6400BF0C37BD465DF8047B98
:10147800704780B485B000AF78600B467B8000234E
:10148800FB817B681B8BFB81FB8923F07003FB814D
:10149800FA897B881343FB817B68FA891A8300BF2A
:1014A8001437BD465DF8047B704780B485B000AF43
:1014B80078600B467B800023FB817B681B8BFB815C
:1014C800FB8923F4E043FB817B881B029AB2FB89EA
:1014D8001343FB817B68FA891A8300BF1437BD4622
:1014E8005DF8047B704780B485B000AF78600B4628
:1014F8007B800023FB817B689B8BFB81FB8923F02E
:101508007003FB81FA897B881343FB817B68FA8926
:101518009A8300BF1437BD465DF8047B704780B4DA
:1015280085B000AF78600B467B800023FB817B6829
:101538009B8BFB81FB8923F4E043FB817B881B02A7
:101548009AB2FB891343FB817B68FA899A8300BFAF
:101558001437BD465DF8047B704780B485B000AF92
:1015680078600B467B800023FB817B681B8BFB81AB
:10157800FB8923F00803FB81FA897B881343FB81ED
:101588007B68FA891A8300BF1437BD465DF8047B6F
:10159800704780B485B000AF78600B467B8000232D
:1015A800FB817B681B8BFB81FB8923F40063FB8138
:1015B8007B881B029AB2FB891343FB817B68FA89FB
:1015C8001A8300BF1437BD465DF8047B704780B4AA
:1015D80085B000AF78600B467B800023FB817B6879
:1015E8009B8BFB81FB8923F00803FB81FA897B88AD
:1015F8001343FB817B68FA899A8300BF1437BD4681
:101608005DF8047B704780B485B000AF78600B4606
:101618007B800023FB817B689B8BFB81FB8923F408
:101628000063FB817B881B029AB2FB891343FB8111
:101638007B68FA899A8300BF1437BD465DF8047B3E
:10164800704780B485B000AF78600B467B8000237C
:10165800FB817B681B8BFB81FB8923F00403FB81E7
:10166800FA897B881343FB817B68FA891A8300BF58
:101678001437BD465DF8047B704780B485B000AF71
:1016880078600B467B800023FB817B681B8BFB818A
:10169800FB8923F48063FB817B881B029AB2FB8958
:1016A8001343FB817B68FA891A8300BF1437BD4650
:1016B8005DF8047B704780B485B000AF78600B4656
:1016C8007B800023FB817B689B8BFB81FB8923F05C
:1016D8000403FB81FA897B881343FB817B68FA89C1
:1016E8009A8300BF1437BD465DF8047B704780B409
:1016F80085B000AF78600B467B800023FB817B6858
:101708009B8BFB81FB8923F48063FB817B881B0215
:101718009AB2FB891343FB817B68FA899A8300BFDD
:101728001437BD465DF8047B704780B485B000AFC0
:1017380078600B467B800023FB817B681B8BFB81D9
:10174800FB8923F08003FB81FA897B881343FB81A3
:101758007B68FA891A8300BF1437BD465DF8047B9D
:10176800704780B485B000AF78600B467B8000235B
:10177800FB817B681B8BFB81FB89C3F30E03FB8119
:101788007B881B029AB2FB891343FB817B68FA8929
:101798001A8300BF1437BD465DF8047B704780B4D8
:1017A80085B000AF78600B467B800023FB817B68A7
:1017B8009B8BFB81FB8923F08003FB81FA897B8863
:1017C8001343FB817B68FA899A8300BF1437BD46AF
:1017D8005DF8047B704780B485B000AF78600B4635
:1017E8007B800023FB817B689B8BFB81FB89C3F398
:1017F8000E03FB817B881B029AB2FB891343FB8192
:101808007B68FA899A8300BF1437BD465DF8047B6C
:10181800704780B485B000AF78600B467B800023AA
:10182800FB817B681B8CFB81FB8923F00203FB8116
:10183800FA897B881343FB817B68FA891A8400BF85
:101848001437BD465DF8047B704780B485B000AF9F
:1018580078600B467B800023FB817B681B8CFB81B7
:10186800FB8923F00803FB81FA897B881343FB81FA
:101878007B68FA891A8400BF1437BD465DF8047B7B
:10188800704780B485B000AF78600B467B8000233A
:10189800FB817B681B8CFB81FB8923F02003FB8188
:1018A8007B881B019AB2FB891343FB817B68FA8909
:1018B8001A8400BF1437BD465DF8047B704780B4B6
:1018C80085B000AF78600B467B800023FB817B6886
:1018D8001B8CFB81FB8923F08003FB817B881B0128
:1018E8009AB2FB891343FB817B68FA891A8400BF8B
:1018F8001437BD465DF8047B704780B485B000AFEF
:1019080078600B467B800023FB817B681B8CFB8106
:10191800FB8923F40073FB817B881B029AB2FB8945
:101928001343FB817B68FA891A8400BF1437BD46CC
:101938005DF8047B704780B485B000AF78600B46D3
:101948007B800023FB817B681B8CFB81FB8923F454
:101958000063FB817B881B029AB2FB891343FB81DE
:101968007B68FA891A8400BF1437BD465DF8047B8A
:10197800704780B485B000AF78600B467B80002349
:10198800FB817B681B8CFB81FB8923F40053FB8163
:101998007B881B039AB2FB891343FB817B68FA8916
:1019A8001A8400BF1437BD465DF8047B704780B4C5
:1019B80085B000AF78600B467B8013463B800023E0
:1019C800FB817B88012202FA03F3FB817B681B8C75
:1019D8009AB2FB89DB439BB213409AB27B681A84A4
:1019E8007B681B8C9AB239887B8801FA03F39BB217
:1019F80013439AB27B681A8400BF1437BD465DF85A
:101A0800047B704780B485B000AF78600B467B805C
:101A180013463B800023FB817B88042202FA03F3F0
:101A2800FB817B681B8C9AB2FB89DB439BB213401A
:101A38009AB27B681A847B681B8C9AB239887B8837
:101A480001FA03F39BB213439AB27B681A8400BF6E
:101A58001437BD465DF8047B704780B582B000AF8F
:101A6800786039603B681B88002B0FD13B68598828
:101A78003B689A883B681B89786800F0B7FC3B682C
:101A8800DB881946786800F0E1F836E03B681B8887
:101A9800042B0FD13B6859883B689A883B681B899F
:101AA800786800F0E6FC3B68DB881946786800F047
:101AB800E9F822E03B681B88082B0FD13B6859885E
:101AC8003B689A883B681B89786800F01FFD3B6873
:101AD800DB881946786800F0F3F80EE03B6859880F
:101AE8003B689A883B681B89786800F057FD3B681B
:101AF800DB881946786800F0FFF800BF0837BD4654
:101B080080BD80B483B000AF78607B6800221A8003
:101B18007B6800225A807B6801229A807B680022B9
:101B2800DA807B6800221A8100BF0C37BD465DF859
:101B3800047B704780B584B000AF786039600023BB
:101B4800FB810123BB813B685B88002B02D1022308
:101B5800FB8101E00023FB813B689B88012B02D1BC
:101B68000223BB8101E00123BB813B681B88002B5A
:101B78001CD13B6859883B689A883B681B89786800
:101B880000F034FC3B68DB881946786800F05EF8A2
:101B98003B681B89BA89F989786800F06AFC3B6858
:101BA800DB881946786800F06DF81BE03B685988B7
:101BB8003B689A883B681B89786800F05AFC3B6848
:101BC800DB881946786800F05DF83B681B89BA899C
:101BD800F989786800F00AFC3B68DB881946786860
:101BE80000F034F800BF1037BD4680BD80B483B024
:101BF80000AF78607B685B6B18460C37BD465DF8B4
:101C0800047B704780B483B000AF78607B689B6BBF
:101C180018460C37BD465DF8047B704780B483B026
:101C280000AF78607B68DB6B18460C37BD465DF803
:101C3800047B704780B483B000AF78607B681B6C0E
:101C480018460C37BD465DF8047B704780B483B0F6
:101C580000AF78600B467B807B681B8B9BB223F0C0
:101C68000C039AB27B681A837B681B8B9AB27B88B9
:101C780013439AB27B681A8300BF0C37BD465DF8E0
:101C8800047B704780B483B000AF78600B467B80DC
:101C98007B681B8B9BB223F440639AB27B681A83E0
:101CA8007B681B8B9AB27B881B029BB213439AB248
:101CB8007B681A8300BF0C37BD465DF8047B70470C
:101CC80080B483B000AF78600B467B807B689B8BC9
:101CD8009BB223F00C039AB27B689A837B689B8B38
:101CE8009AB27B8813439AB27B689A8300BF0C37F9
:101CF800BD465DF8047B704780B483B000AF786060
:101D08000B467B807B689B8B9BB223F440639AB223
:101D18007B689A837B689B8B9AB27B881B029BB2F9
:101D280013439AB27B689A8300BF0C37BD465DF8AF
:101D3800047B704780B483B000AF786039603B683B
:101D48001A883B685B8813439AB23B689B881343A5
:101D58009AB23B68DB8813439AB23B681B891343EA
:101D68009AB23B685B8913439AB23B689B891343D9
:101D78009AB27B68A3F8442000BF0C37BD465DF8D3
:101D8800047B704780B483B000AF78607B68002222
:101D98001A807B6800225A807B6800229A807B68C0
:101DA8000022DA807B6800221A817B6800225A812F
:101DB8007B6800229A8100BF0C37BD465DF8047B22
:101DC800704780B483B000AF78600B46FB70FB7837
:101DD800002B0CD07B68B3F844309BB26FEA4343C6
:101DE8006FEA53439AB27B68A3F8442009E07B6802
:101DF800B3F844309BB2C3F30E039AB27B68A3F8DE
:101E0800442000BF0C37BD465DF8047B704780B4A2
:101E180083B000AF78600B46FB70FB78002B08D0CE
:101E28007B689B889BB243F004039AB27B689A80D4
:101E380007E07B689B889BB223F004039AB27B6817
:101E48009A8000BF0C37BD465DF8047B704780B4AC
:101E580083B000AF78600B46FB70FB78002B08D08E
:101E68007B689B889BB243F001039AB27B689A8097
:101E780007E07B689B889BB223F001039AB27B68DA
:101E88009A8000BF0C37BD465DF8047B704780B46C
:101E980083B000AF78600B467B8013467B707B78FD
:101EA800002B08D07B689B899AB27B8813439AB22F
:101EB8007B689A8109E07B689B899AB27B88DB43BF
:101EC8009BB213409AB27B689A8100BF0C37BD461B
:101ED8005DF8047B704780B483B000AF78600B4630
:101EE8007B807B687A889A8200BF0C37BD465DF894
:101EF800047B704780B485B000AF78600B467B8068
:101F08000023FB737B681B8A9AB27B8813409BB2C1
:101F1800002B02D00123FB7301E00023FB73FB7B42
:101F280018461437BD465DF8047B704780B483B00B
:101F380000AF78600B467B807B88DB439AB27B6876
:101F48001A8200BF0C37BD465DF8047B704780B429
:101F580085B000AF78600B467B800023FB730023BD
:101F6800BB8100237B817B681B8A9AB27B881340E4
:101F7800BB817B689B899AB27B8813407B81BB8934
:101F8800002B05D07B89002B02D00123FB7301E0D5
:101F98000023FB73FB7B18461437BD465DF8047BB2
:101FA800704780B483B000AF78600B467B807B8835
:101FB800DB439AB27B681A8200BF0C37BD465DF8D6
:101FC800047B704780B483B000AF78600B467B8099
:101FD80013463B807A883B8813439AB27B68A3F800
:101FE800482000BF0C37BD465DF8047B704780B4BD
:101FF80083B000AF78600B467B8013467B707B789C
:10200800002B08D07B689B899AB27B8813439AB2CD
:102018007B689A8109E07B689B899AB27B88DB435D
:102028009BB213409AB27B689A8100BF0C37BD46B9
:102038005DF8047B704780B483B000AF78600B46CE
:10204800FB70FB78002B08D07B689B889BB243F021
:1020580008039AB27B689A8007E07B689B889BB2EA
:1020680023F008039AB27B689A8000BF0C37BD46FC
:102078005DF8047B704780B483B000AF78607B68FC
:102088001B899BB223F007039AB27B681A8100BFB1
:102098000C37BD465DF8047B704780B582B000AF51
:1020A80078600B467B807B881946786800F088F852
:1020B8007B681B899BB243F007039AB27B681A813D
:1020C80000BF0837BD4680BD80B584B000AFF8605A
:1020D800084611461A4603467B810B463B81134648
:1020E800FB807B89602B06D1FB8839890122F8683F
:1020F80000F0BFF905E0FB8839890122F86800F093
:1021080075F97B891946F86800F05AF8FB681B894D
:102118009BB243F007039AB2FB681A8100BF1037DD
:10212800BD4680BD80B586B000AFF8600846114650
:102138001A4603467B810B463B811346FB800023EE
:10214800FB82FB883A897989F86800F0A9F8FB686E
:102158001B89FB82FB8A23F00703FB82FB8A43F07F
:102168000703FB82FB8A23F07003FB82FB8A43F0A0
:102178007003FB82FB68FA8A1A8100BF1837BD46D4
:1021880080BD80B584B000AFF860084611461A4695
:1021980003467B810B463B811346FB80FB883A89CB
:1021A8007989F86800F07CF8FB681B899BB243F4D6
:1021B80080439AB2FB681A8100BF1037BD4680BDC4
:1021C80080B485B000AF78600B467B800023FB812C
:1021D8007B681B89FB81FB8923F07003FB81FA89EB
:1021E8007B881343FB817B68FA891A8100BF143707
:1021F800BD465DF8047B704780B483B000AF78605B
:102208000B467B807B689B889BB223F070039AB255
:102218007B689A807B689B889AB27B8813439AB2C2
:102228007B689A8000BF0C37BD465DF8047B704719
:1022380080B483B000AF78600B467B807B681B89D5
:102248009BB223F007039AB27B681A817B681B89CB
:102258009AB27B8813439AB27B681A8100BF0C3705
:10226800BD465DF8047B704780B483B000AF7860EA
:102278000B467B807B681B899BB223F080039AB254
:102288007B681A817B681B899AB27B8813439AB250
:102298007B681A8100BF0C37BD465DF8047B704728
:1022A80080B487B000AFF860084611461A46034666
:1022B8007B810B463B811346FB800023FB82FB6836
:1022C8001B89FB82FB8ADBB2FB82FB881B029AB26A
:1022D8003B8913439AB27B8913439AB2FB8A13430F
:1022E800FB82FB68FA8A1A8100BF1C37BD465DF87D
:1022F800047B704780B487B000AFF8600846114689
:102308001A4603467B810B463B811346FB8000231C
:10231800FB820023BB8200237B82FB681B89FB8234
:10232800FB681B8BBB82FB681B8C7B82FB8A23F0C0
:102338000703FB82FA8A7B891343FB82BB8A23F457
:10234800407323F00303BB82BB8A43F4807343F0DA
:102358000103BB827B8A23F022037B82FB881B015B
:102368009AB23B8913439AB27B8A13437B82FB68F8
:10237800FA8A1A81FB68BA8A1A83FB687A8A1A84ED
:1023880000BF1C37BD465DF8047B704780B483B03E
:1023980000AF78600B46FB70FB78002B08D07B6899
:1023A8009B889BB243F080039AB27B689A8007E0CF
:1023B8007B689B889BB223F080039AB27B689A80E3
:1023C80000BF0C37BD465DF8047B704780B483B00E
:1023D80000AF78600B467B807B687A88A3F8502032
:1023E80000BF0C37BD465DF8047B704780B487B0EA
:1023F80000AFF860084611461A4603467B810B4633
:102408003B811346FB800023FB820023BB82FB68D1
:102418001B8C9BB223F001039AB2FB681A84FB68F9
:102428001B8BFB82FB681B8CBB82FB8A23F0F303AC
:10243800FB82FB881B019AB23B8913439AB2FB8A41
:102448001343FB82BB8A23F00A03BB827A89BB8AC7
:1024580013439BB243F00103BB82FB68FA8A1A83D9
:10246800FB68BA8A1A8400BF1C37BD465DF8047B36
:10247800704780B487B000AFF860084611461A4626
:1024880003467B810B463B811346FB800023FB827E
:102498000023BB8200237B82FB681B8C9BB223F04A
:1024A80010039AB2FB681A84FB681B8BFB82FB68DB
:1024B8001B8CBB827B891B017B82FB8A23F44073C4
:1024C8001B051B0DFB82FB881B039AB2FB8A134377
:1024D800FB823B891B029AB2FB8A1343FB82BB8AAD
:1024E80023F0A003BB827A8ABB8A13439BB243F0D2
:1024F8001003BB82FB68FA8A1A83FB68BA8A1A84BB
:1025080000BF1C37BD465DF8047B704780B487B0B8
:1025180000AFF860084611461A4603467B810B4611
:102528003B811346FB800023FB820023BB820023F0
:102538007B82FB681B8C9BB223F480739AB2FB6886
:102548001A84FB689B8BFB82FB681B8CBB827B8994
:102558001B027B82FB8A23F0F303FB82FB881B01AF
:102568009AB23B8913439AB2FB8A1343FB82BB8A14
:1025780023F42063BB827A8ABB8A13439BB243F459
:102588008073BB82FB68FA8A9A83FB68BA8A1A84CA
:1025980000BF1C37BD465DF8047B704780B487B028
:1025A80000AFF860084611461A4603467B810B4681
:1025B8003B811346FB800023FB820023BB82002360
:1025C8007B82FB681B8C9BB223F480539AB2FB6816
:1025D8001A84FB689B8BFB82FB681B8CBB827B8904
:1025E8001B037B82FB8A23F440731B051B0DFB82B4
:1025F8003B891B029AB2FB8A1343FB82FB881B03AD
:102608009AB2FB8A1343FB82BB8A23F400535B0410
:102618005B0CBB827A8ABB8A13439BB243F4805318
:10262800BB82FB68FA8A9A83FB68BA8A1A8400BF5D
:102638001C37BD465DF8047B704700BF80B59EB06F
:1026480000AFF860B9607A600023FB8200237B67E3
:1026580000233B610023BB66012387F87330FB68C6
:10266800FB667B687B66BB689BB203F003039BB287
:10267800DB009BB2FB8200F08DF90023FB62002394
:102688003B6320237B6307F12C03184600F08EF987
:10269800FB8A9BB2184600F0E7F900237B670AE043
:1026A800FB6E1B68184600F0F9F9FB6E0433FB66F5
:1026B8007B6F04337B677A6FBB689A42F0D300F074
:1026C8002DFA082000F0DEFA0346BB663B690133A9
:1026D8003B613B69B3F5803F02D0BB6E002BF0D164
:1026E800BB6E002B03D0002387F8733038E007F166
:1026F8001803184600F0F2F97B6EBA693A643A6C2E
:1027080012BAFA63FA6B1A607B6E04337B667B6ECF
:10271800FA69BA64BA6C12BA7A647A6C1A607B6E17
:1027280004337B667B6E3A6A3A653A6D12BAFA648C
:10273800FA6C1A607B6E04337B667B6E7A6ABA65C4
:10274800BA6D12BA7A657A6D1A607B6E04337B664D
:102758007B6EBA6A3A663A6E12BAFA65FA6D1A6010
:1027680097F8733018467837BD4680BD80B5A0B05D
:1027780000AFF860B9607A603B6000237B83002378
:102788003B830023FB6700237B610023FB66012357
:1027980087F87B30FB687B677B683B67D7F88830B6
:1027A800BB663B689BB203F003039BB2DB009BB2A2
:1027B8007B83BB689BB203F003039BB2DB009BB235
:1027C8003B8300F0E7F800233B6340237B6320232F
:1027D800BB63BB68402B03D94FF48033FB6301E034
:1027E8000023FB6307F13003184600F0DFF83B8B4A
:1027F8009BB2184600F038F90023FB670AE07B6FAC
:102808001B68184600F04AF97B6F04337B67FB6F3F
:102818000433FB67FA6FBB689A42F0D300F07EF985
:10282800082000F02FFA0346FB667B6901337B61C1
:102838007B69B3F5803F02D0FB6E002BF0D1FB6EB5
:10284800002B03D0002387F87B309CE07B8B9BB266
:10285800184600F009F90023FB670AE03B6F1B6884
:10286800184600F01BF93B6F04333B67FB6F0433DA
:10287800FB67FA6F3B689A42F0D300F04FF90023E8
:102888007B61082000F0FEF90346FB667B69013393
:102898007B617B69B3F5803F02D0FB6E002BF0D1E2
:1028A800FB6E002B03D0002387F87B306BE03B8B5B
:1028B8009BB2184600F0D8F8FB687B670023FB67DB
:1028C8000AE07B6F1B68184600F0E8F87B6F04335A
:1028D8007B67FB6F0433FB67FA6FBB689A42F0D3E0
:1028E80000F01CF900237B61082000F0CBF90346B7
:1028F800FB667B6901337B617B69B3F5803F02D05E
:10290800FB6E002BF0D1FB6E002B03D0002387F861
:102918007B3038E007F11C03184600F0DFF8BB6E87
:10292800FA697A647A6C12BA3A643A6C1A60BB6EC5
:102938000433BB66BB6E3A6AFA64FA6C12BABA64BC
:10294800BA6C1A60BB6E0433BB66BB6E7A6A7A6572
:102958007A6D12BA3A653A6D1A60BB6E0433BB667B
:10296800BB6EBA6AFA65FA6D12BABA65BA6D1A60C0
:10297800BB6E0433BB66BB6EFA6A7A667A6E12BAAD
:102988003A663A6E1A6097F87B3018468037BD462B
:1029980080BD000080B500AF0121202007F042FB78
:1029A8000021202007F03EFB00BF80BD80B483B02B
:1029B80000AF7860184A184B1B6823F4802323F073
:1029C800F00313601448144B1A687B6819687B6815
:1029D8009B6819437B685B680B43134303607B6800
:1029E8005B68402B0CD10C4A0B4B1B6823F48033DB
:1029F80013600949084B1A687B68DB6813430B604E
:102A0800054A054B1B6843F00403136000BF0C37ED
:102A1800BD465DF8047B70470004065080B483B05F
:102A280000AF78607B6800221A607B6800225A60D9
:102A38007B6800229A607B680022DA6000BF0C374E
:102A4800BD465DF8047B704780B400AF054A054B6E
:102A58001B6843F00403136000BFBD465DF8047BA8
:102A6800704700BF0004065080B483B000AF03462F
:102A7800FB80094A084B9B6823F01F0393600649B3
:102A8800054B9A68FB8813438B6000BF0C37BD4623
:102A98005DF8047B704700BF0004065080B483B023
:102AA80000AF7860044A7B68536000BF0C37BD46AE
:102AB8005DF8047B704700BF0004065080B400AF87
:102AC800054B1B681B0ADBB203F00F03DBB2184689
:102AD800BD465DF8047B70470004065080B483B09F
:102AE80000AF78600C4BDA687B681A600A4B1A6989
:102AF8007B685A60084B5A697B689A60064B9A69EA
:102B08007B68DA60044BDA697B681A6100BF0C37AE
:102B1800BD465DF8047B70470004065080B400AFE2
:102B2800054A054B9B6843F48073936000BFBD461C
:102B38005DF8047B704700BF0004065080B485B080
:102B480000AF78600023FB73124B1A6A7B681A6027
:102B5800104B9A687B685A600E4B1A687B689A60BB
:102B68000023FB730DE0FB7B0A49FA7B3E3251F8E8
:102B78002220796802339B000B445A60FB7B0133A7
:102B8800FB73FB7B322BEED900BF1437BD465DF8D3
:102B9800047B70470004065080B485B000AF7860AD
:102BA8000023FB73164A7B681B681362144A7B6810
:102BB8005B689360124A7B689B681360104A104BED
:102BC8001B6843F0040313600023FB730EE00C48FA
:102BD800F97BFB7B7A6802339B0013445A6801F146
:102BE8003E0340F82320FB7B0133FB73FB7B322B36
:102BF800EDD900BF1437BD465DF8047B704700BFB0
:102C08000004065080B483B000AF0346FB71FB7923
:102C1800002B06D0094A094B1B6843F008031360D0
:102C280005E0064A054B1B6823F00803136000BF44
:102C38000C37BD465DF8047B704700BF00040650A2
:102C480080B483B000AF03460A46FB711346BB71DC
:102C5800BB79002B06D00A49094B1A6AFB79134342
:102C68000B6207E00649064B1B6AFA79D243D2B2D7
:102C780013400B6200BF0C37BD465DF8047B7047FC
:102C88000004065080B485B000AF0346FB800023E3
:102C9800FB730023BB60FB8803F48053002B03D035
:102CA8000B4B1B68BB6002E0094B5B6ABB60FA8890
:102CB800BB681340002B02D00123FB7301E0002303
:102CC800FB73FB7B18461437BD465DF8047B7047E1
:102CD8000004065080B483B000AF0346FB80054A69
:102CE800FB88DB43536200BF0C37BD465DF8047BAD
:102CF800704700BF0004065080B485B000AF03469B
:102D0800FB710023FB730023BB600B4B5B6ABB604A
:102D1800094B1A6ABB681A40FB791340002B02D092
:102D28000123FB7301E00023FB73FB7B1846143778
:102D3800BD465DF8047B70470004065080B483B03C
:102D480000AF0346FB71054AFB79DB43DBB25362F4
:102D580000BF0C37BD465DF8047B70470004065081
:102D680080B500AF01214FF0005007F09BF900211A
:102D78004FF0005007F096F900BF80BD80B485B0D1
:102D880000AF786039600023FB600023BB60144B00
:102D98001B68FB6040F6FE727B6802FA03F3DB43B4
:102DA800FA681340FB603B681A683B685B681A4323
:102DB8003B689B681A433B68DB681343BB60BA688F
:102DC8007B6802FA03F3FA681343FB60044AFB6862
:102DD800136000BF1437BD465DF8047B704700BF21
:102DE8000074004080B483B000AF78607B68002234
:102DF8001A607B6800225A607B6800229A607B68B0
:102E08000022DA6000BF0C37BD465DF8047B7047CE
:102E180080B483B000AF78600B46FB70FB78002B62
:102E280009D00D490C4B1A6801207B6800FA03F39E
:102E380013430B6009E00849074B1A6801207B68B7
:102E480000FA03F3DB4313400B6000BF0C37BD46A9
:102E58005DF8047B704700BF0074004080B483B005
:102E680000AF78600B46FB70FB78002B0AD00E4948
:102E78000D4B5A687B681B09012000FA03F31343C2
:102E88004B600AE00849084B5A687B681B09012017
:102E980000FA03F3DB4313404B6000BF0C37BD4619
:102EA8005DF8047B704700BF0074004080B483B0B5
:102EB80000AF0346FB71FB79002B06D0094A094B8A
:102EC8005B6843F00303536005E0064A054B5B6803
:102ED80023F00303536000BF0C37BD465DF8047B45
:102EE800704700BF0074004080B485B000AFF86040
:102EF800B9601346FB71FB79002B09D00C480C4BC9
:102F08001A68B968FB6801FA03F31343036009E020
:102F18000748074B1A68B968FB6801FA03F3DB43F3
:102F28001340036000BF1437BD465DF8047B70474B
:102F38000074004080B485B000AF78600B467B8099
:102F48000023FB60084BFB60FA687B681344083376
:102F5800FB60FB681A467B88136000BF1437BD46C8
:102F68005DF8047B704700BF0074004080B485B0F2
:102F780000AF78600B467B800023FB60084BFB604A
:102F8800FA687B6813441433FB60FB681A467B8835
:102F9800136000BF1437BD465DF8047B704700BF5F
:102FA8000074004080B485B000AF78600B467B8029
:102FB80013463B800023FB600023BB607B68082B23
:102FC80005D17B881A023B881343FB6004E07B88A9
:102FD8001A043B881343FB60074BBB607A68BB68E5
:102FE80013442033BB60BB68FA681A6000BF14370B
:102FF800BD465DF8047B70470074004080B485B01E
:1030080000AF78600023FB60084BFB607B689A0880
:10301800FB6813442C33FB60FB681B689BB21846A3
:103028001437BD465DF8047B704700BF007400404C
:1030380080B483B000AF78600B46FB70FB78002B40
:103048000AD00E490D4B1A684FF480507B6800FA7D
:1030580003F313430B600AE00849084B1A684FF45E
:1030680080507B6800FA03F3DB4313400B6000BF1A
:103078000C37BD465DF8047B704700BF0074004004
:1030880080B485B000AFF860B9601346FB71FB7976
:10309800002B09D00C480C4B1A68B968FB6801FA78
:1030A80003F31343036009E00748074B1A68B9683C
:1030B800FB6801FA03F3DB431340036000BF1437D6
:1030C800BD465DF8047B70470074004080B485B04D
:1030D80000AF786039600023FB730A4B5A6B39687C
:1030E8007B6801FA03F31340002B02D00123FB7322
:1030F80001E00023FB73FB7B18461437BD465DF8DF
:10310800047B70470074004080B483B000AF7860DF
:10311800396006493A687B6802FA03F34B6300BFDB
:103128000C37BD465DF8047B704700BF0074004053
:1031380080B485B000AF786039600023FB7300234A
:10314800BB60104B1A6839687B6801FA03F31340B7
:10315800BB600C4B5A6B39687B6801FA03F3134068
:10316800002B05D0BB68002B02D00123FB7301E0C4
:103178000023FB73FB7B18461437BD465DF8047BC0
:10318800704700BF0074004080B483B000AF78601F
:10319800396006493A687B6802FA03F34B6300BF5B
:1031A8000C37BD465DF8047B704700BF00740040D3
:1031B80080B582B000AF78607B680E4A93420AD12E
:1031C80001214FF0007006F06DFF00214FF00070F4
:1031D80006F068FF09E001214FF0806006F062FF09
:1031E80000214FF0806006F05DFF00BF0837BD4644
:1031F80080BD00BF0064004080B485B000AF786037
:1032080039600023FB730023BB607B681B6823F0D5
:1032180002027B681A607B681B6843F001027B68C6
:103228001A6002E0BB680133BB607B685B6803F02F
:103238000103012B04D0BB684FF6FF729342F1D112
:103248007B685B6803F00103012B02D00023FB734A
:103258009CE03B689B79012B06D17B681B6843F097
:1032680080027B681A6005E07B681B6823F0800297
:103278007B681A603B68DB79012B06D17B681B6889
:1032880043F040027B681A6005E07B681B6823F006
:1032980040027B681A603B681B7A012B06D17B6869
:1032A8001B6843F020027B681A6005E07B681B6896
:1032B80023F020027B681A603B685B7A012B06D1F9
:1032C8007B681B6843F010027B681A6005E07B6826
:1032D8001B6823F010027B681A603B689B7A012BFD
:1032E80006D17B681B6843F008027B681A6005E01A
:1032F8007B681B6823F008027B681A603B68DB7AEE
:10330800012B06D17B681B6843F004027B681A60B6
:1033180005E07B681B6823F004027B681A603B6841
:103328009B789A073B68DB781B061A433B681B7936
:103338001B041A433B685B791B051A433B681B88CF
:10334800013B1A437B68DA617B681B6823F0010242
:103358007B681A600023BB6002E0BB680133BB6076
:103368007B685B6803F00103012B04D1BB684FF64F
:10337800FF729342F1D17B685B6803F00103012B74
:1033880002D10023FB7301E00123FB73FB7B18468A
:103398001437BD465DF8047B704780B485B000AF34
:1033A80078600023FB607B689B7A1A460123934070
:1033B800FB60564A554BD3F8003243F00103C2F87C
:1033C80000325249514BD3F81C22FB68DB431340AF
:1033D800C1F81C327B681B7B002B25D14B494B4B1A
:1033E800D3F80C22FB68DB431340C1F80C32474981
:1033F8007B689B7A18467B68DB881B047A6852884E
:103408001A4300F1480341F8332040497B689B7A0E
:1034180018467B689B881B047A6812881A4300F157
:103428004803DB000B445A607B681B7B012B24D1CB
:103438003649364BD3F80C22FB681343C1F80C32DB
:1034480032497B689B7A18467B681B881B047A681C
:1034580052881A4300F1480341F833202B497B680E
:103468009B7A18467B689B881B047A68D2881A4323
:1034780000F14803DB000B445A607B68DB7A002BC1
:1034880009D12249214BD3F80422FB68DB431340BE
:10349800C1F8043207E01D491C4BD3F80422FB682D
:1034A8001343C1F804327B681B89002B08D11749E4
:1034B800164BD3F81422FB68DB431340C1F81432CF
:1034C8007B681B89012B07D11049104BD3F81422B4
:1034D800FB681343C1F814327B685B7B012B07D16F
:1034E8000A490A4BD3F81C22FB681343C1F81C3263
:1034F800064A064BD3F8003223F00103C2F8003223
:1035080000BF1437BD465DF8047B70470064004077
:1035180080B483B000AF78607B6800229A717B68C2
:103528000022DA717B6800221A727B6800225A72C4
:103538007B6800229A727B680022DA727B6800221C
:103548009A707B680022DA707B6803221A717B68A4
:1035580002225A717B6801221A8000BF0C37BD46CF
:103568005DF8047B704780B483B000AF0346FB71FD
:10357800144A144BD3F8003243F00103C2F8003266
:10358800104A104BD3F8003223F47C5323F00E0377
:10359800C2F800320B490B4BD3F80022FB791B020F
:1035A8001343C1F80032074A064BD3F8003223F020
:1035B8000103C2F8003200BF0C37BD465DF8047B3A
:1035C800704700BF0064004080B483B000AF7860EB
:1035D8000B46FB70FB78002B06D07B681B6843F416
:1035E80080327B681A6005E07B681B6823F48032B0
:1035F8007B681A6000BF0C37BD465DF8047B7047D6
:1036080080B483B000AF78600B46FB70FB78002B6A
:103618001ED07B681B6843F080027B681A607B6859
:10362800D3F8843143F480727B68C3F884217B68C3
:10363800D3F8943143F480727B68C3F894217B6893
:10364800D3F8A43143F480727B68C3F8A4211DE049
:103658007B681B6823F080027B681A607B68D3F85C
:10366800843123F480727B68C3F884217B68D3F8A3
:10367800943123F480727B68C3F894217B68D3F873
:10368800A43123F480727B68C3F8A42100BF0C37EF
:10369800BD465DF8047B704780B485B000AF7860A4
:1036A80039600023FB737B689B6803F08063B3F188
:1036B800806F02D10023FB7315E07B689B6803F0E1
:1036C8000063B3F1006F02D10123FB730BE07B6849
:1036D8009B6803F08053B3F1805F02D10223FB7330
:1036E80001E00423FB73FB7B042B00F09C80FB7B35
:1036F800FA7B7968183212010A44126802F0010252
:10370800796818331B010B441A603B681B7A002B3D
:1037180013D1FB7BFA7B7968183212010A441168CD
:103728003A68126852053868407A02430A43796851
:1037380018331B010B441A6015E0FB7BFA7B796890
:10374800183212010A4411683A685268D20038687F
:10375800007A02433868407A02430A43796818338A
:103768001B010B441A603B689B7A03F00F03DAB223
:103778003B689A72FB7BFA7B7968183212010A441B
:103788000432126822F00F02796818331B010B44C7
:1037980004331A60FB7BFA7B7968183212010A44F9
:1037A800043212683968897A0A43796818331B0128
:1037B8000B4404331A60FB7B3A68927B11063A6823
:1037C800527B120411433A68127B12020A43396889
:1037D800C97A0A4379681B010B4403F5C4731A605C
:1037E800FB7B3A68927C11063A68527C12041143BA
:1037F8003A68127C12020A433968C97B0A4379681D
:103808001B010B4403F5C6731A60FB7BFA7B7968CE
:10381800183212010A44126842F00102796818331A
:103828001B010B441A60FB7B18461437BD465DF834
:10383800047B704780B485B000AF78600B46FB709E
:103848000023FB60FB78012B09D0022B0DD0002B45
:1038580011D17B689A68264B1340FB600EE07B68A9
:103868009A68244B1340FB6008E07B689A68224BF7
:103878001340FB6002E00023FB6000BFFB681F4AA7
:1038880093421BD01D4A934208D81D4A934212D036
:10389800174A934218D0002B0AD01EE0194A9342C7
:1038A8000FD0154A934215D0124A93420FD014E014
:1038B8000223FB6014E00023FB6011E00023FB609F
:1038C8000EE00023FB600BE00123FB6008E001230E
:1038D800FB6005E00123FB6002E00023FB6000BF02
:1038E800FB68DBB218461437BD465DF8047B7047A9
:1038F8000300000400030008000003100001000892
:10390800010000040000011080B483B000AF7860AB
:103918000B46FB70FB78012B0BD0022B10D0002B31
:1039280000D014E07B689B6843F080027B689A6053
:103938000DE07B689B6843F400427B689A6006E070
:103948007B689B6843F400027B689A6000BF00BFF5
:103958000C37BD465DF8047B704780B485B000AF76
:10396800F8600B467A60FB72FB7AFA681B331B011E
:1039780013441B68DBB203F00403DAB27B681A72E3
:103988007B681B7A002B0BD1FB7AFA681B331B016F
:1039980013441B685B0DC3F30A027B681A600AE0D4
:1039A800FB7AFA681B331B0113441B68DB0823F0FE
:1039B80060427B685A60FB7AFA681B331B01134428
:1039C8001B68DBB203F00203DAB27B685A72FB7A37
:1039D800FA681B331B01134404331B68DBB203F082
:1039E8000F03DAB27B689A72FB7AFA681B331B0101
:1039F800134404331B681B0ADAB27B68DA74FB7A57
:103A0800FA681B01134403F5DC731B68DAB27B68A0
:103A1800DA72FB7AFA681B01134403F5DC731B683E
:103A28001B0ADAB27B681A73FB7AFA681B01134423
:103A380003F5DC731B681B0CDAB27B685A73FB7ADC
:103A4800FA681B01134403F5DC731B681B0EDAB21A
:103A58007B689A73FB7AFA681B01134403F5DE73DB
:103A68001B68DAB27B68DA73FB7AFA681B011344C5
:103A780003F5DE731B681B0ADAB27B681A74FB7ADB
:103A8800FA681B01134403F5DE731B681B0CDAB2DA
:103A98007B685A74FB7AFA681B01134403F5DE73DA
:103AA8001B681B0EDAB27B689A74FB7A002B06D16E
:103AB800FB68DB6843F02002FB68DA6005E0FB681E
:103AC8001B6943F02002FB681A6100BF1437BD462A
:103AD8005DF8047B704780B483B000AF78600B4614
:103AE800FB70FB78002B06D17B68DB6843F0200273
:103AF8007B68DA6005E07B681B6943F020027B681D
:103B08001A6100BF0C37BD465DF8047B704780B46E
:103B180085B000AF78600B46FB700023FB73FB7821
:103B2800002B06D17B68DB68DBB203F00303FB7371
:103B38000BE0FB78012B06D17B681B69DBB203F035
:103B48000303FB7301E00023FB73FB7B1846143768
:103B5800BD465DF8047B704780B485B000AF7860DF
:103B68000B46FB700023FB734FF6FF73BB60FB78BB
:103B7800002B20D17B681B6823F0030343F001026C
:103B88007B681A6002E0BB68013BBB607B685B68CE
:103B980003F00303012B02D0BB68002BF3D17B6831
:103BA8005B6803F00303012B02D00023FB734AE098
:103BB8000123FB7347E0FB78012B1ED17B681B6850
:103BC80023F003027B681A6002E0BB68013BBB601C
:103BD8007B685B6803F00303002B02D0BB68002BF3
:103BE800F3D17B685B6803F00303002B02D000234A
:103BF800FB7328E00123FB7325E0FB78022B20D11F
:103C08007B681B6823F0030343F002027B681A6099
:103C180002E0BB68013BBB607B685B6803F00303A1
:103C2800022B02D0BB68002BF3D17B685B6803F0E2
:103C38000303022B02D00023FB7304E00123FB7370
:103C480001E00023FB73FB7B18461437BD465DF883
:103C5800047B704780B485B000AF78600023FB73A5
:103C68007B681B6823F0030343F002027B681A6039
:103C78007B685B6803F00303022B01D10123FB730C
:103C8800FB7B18461437BD465DF8047B704780B44B
:103C980085B000AF78604FF6FF73FB600023FB72BE
:103CA8007B681B6823F002027B681A6002E0FB68ED
:103CB800013BFB607B685B6803F00203022B02D1C7
:103CC800FB68002BF3D17B685B6803F00203022BCF
:103CD80001D00123FB72FB7A18461437BD465DF804
:103CE800047B704780B485B000AF78600023FB7315
:103CF8007B689B69DBB203F07003FB73FB7B1846A0
:103D08001437BD465DF8047B704780B485B000AFBA
:103D180078600023FB737B689B691B0EFB73FB7B3E
:103D280018461437BD465DF8047B704780B485B0EB
:103D380000AF78600023FB737B689B691B0CFB73E7
:103D4800FB7B18461437BD465DF8047B704780B48A
:103D580085B000AFF860B9601346FB71FB79002BA2
:103D680006D0FB685A69BB681A43FB685A6106E0CB
:103D7800FB685A69BB68DB431A40FB685A6100BF9D
:103D88001437BD465DF8047B704780B485B000AF3A
:103D9800786039600023FB733B6803F47003002BE1
:103DA8000DD07B689A693B681340C3F31303002B5B
:103DB80002D00123FB7348E00023FB7345E03B6816
:103DC80003F08073002B0DD07B685A683B68134062
:103DD800C3F31303002B02D00123FB7335E0002348
:103DE800FB7332E03B6803F00063002B0DD07B6867
:103DF8009A683B681340C3F31303002B02D00123D6
:103E0800FB7322E00023FB731FE03B6803F00073A1
:103E1800002B0DD07B68DA683B681340C3F31303AB
:103E2800002B02D00123FB730FE00023FB730CE08F
:103E38007B681A693B681340C3F31303002B02D055
:103E48000123FB7301E00023FB73FB7B1846143747
:103E5800BD465DF8047B704780B485B000AF7860DC
:103E680039600023FB603B68174A934203D17B68A3
:103E780000229A6121E03B68C3F31303FB603B68AF
:103E880003F00073002B03D07B68FA68DA6014E053
:103E98003B6803F08063002B03D07B68FA681A61E3
:103EA8000BE03B6803F00063002B03D07B68FA68E3
:103EB8009A6002E07B68FA685A6000BF1437BD4612
:103EC8005DF8047B704700BF7000F03080B584B0A7
:103ED80000AF786039600023FB737B685A693B68E0
:103EE8001340002B00F0B2803B68402B62D0402B7F
:103EF8000FD8042B3AD0042B04D8012B24D0022B42
:103F08002BD09FE0102B43D0202B4AD0082B36D043
:103F180098E0B3F5006F00F08380B3F5006F09D81F
:103F2800B3F5007F6AD0B3F5806F70D0B3F5807FAA
:103F38005BD087E0B3F5803F45D0B3F5003F4BD069
:103F4800B3F5004F75D07DE07B689B684349184600
:103F580000F0F6F80346FB737AE07B68DB68032120
:103F6800184600F0EDF80346FB7371E07B68DB68E8
:103F78000821184600F0E4F80346FB7368E07B6804
:103F8800DB681021184600F0DBF80346FB735FE09E
:103F98007B681B690321184600F0D2F80346FB73BF
:103FA80056E07B681B690821184600F0C9F80346EB
:103FB800FB734DE07B681B691021184600F0C0F8C0
:103FC8000346FB7344E07B685B680821184600F0F1
:103FD800B7F80346FB733BE07B685B681021184623
:103FE80000F0AEF80346FB7332E07B689B69012161
:103FF800184600F0A5F80346FB7329E07B689B6927
:104008000221184600F09CF80346FB7320E07B6809
:104018009B690421184600F093F80346FB7317E0E8
:104028007B689B697021184600F08AF80346FB7389
:104038000EE07B685B680421184600F081F80346AF
:10404800FB7305E00023FB7300BF01E00023FB7353
:10405800FB7B18461037BD4680BD00BF010101003B
:1040680080B483B000AF786039603B68B3F5807F77
:1040780043D0B3F5807F0DD8082B2AD0082B04D85D
:10408800012B1ED0042B20D051E0202B25D0402B13
:1040980027D04CE0B3F5006F3BD0B3F5006F06D8DE
:1040A800B3F5007F2DD0B3F5806F2ED03FE0B3F588
:1040B800803F1AD0B3F5003F1BD0B3F5004F2FD087
:1040C80035E07B681D4A9A6031E07B680822DA6037
:1040D8002DE07B681022DA6029E07B6808221A61EB
:1040E80025E07B6810221A6121E07B6808225A606B
:1040F8001DE07B6810225A6019E07B6804225A6030
:1041080015E07B6804225A6011E07B6804225A603B
:104118000DE07B6800229A617B6804225A6006E001
:104128007B6800229A617B6804225A6000BF00BF46
:104138000C37BD465DF8047B704700BF01010100E4
:1041480080B485B000AF786039600023FB737A686B
:104158003B681340002B02D00123FB7301E00023CE
:10416800FB73FB7B18461437BD465DF8047B70472C
:1041780080B483B000AF7860044B7A68D2B21A700A
:1041880000BF0C37BD465DF8047B7047003C024019
:1041980080B483B000AF0346FB71FB79002B06D0D7
:1041A800094A094B1B6843F48073136005E0064A0B
:1041B800054B1B6823F48073136000BF0C37BD46A2
:1041C8005DF8047B704700BF003C024080B483B0B8
:1041D80000AF0346FB71FB79002B06D0094A094B57
:1041E8001B6843F40073136005E0064A054B1B681F
:1041F80023F40073136000BF0C37BD465DF8047BE1
:10420800704700BF003C024080B483B000AF034653
:10421800FB71FB79002B06D0094A094B1B6843F454
:104228008063136005E0064A054B1B6823F480632E
:10423800136000BF0C37BD465DF8047B704700BFB4
:10424800003C024080B400AF054A054B1B6843F4AC
:104258000063136000BFBD465DF8047B704700BF74
:10426800003C024080B400AF054A054B1B6843F48C
:104278008053136000BFBD465DF8047B704700BFE4
:10428800003C024080B400AF074B1B69002B05DAE5
:10429800054B064A5A60044B054A5A6000BFBD46A2
:1042A8005DF8047B704700BF003C0240230167456E
:1042B800AB89EFCD80B400AF054A054B1B6943F0CD
:1042C8000043136100BFBD465DF8047B704700BF23
:1042D800003C024080B584B000AF78600B46FB70AC
:1042E8000023FB600823FB72FB78002B02D100231C
:1042F800FB6010E0FB78012B03D14FF48073FB6067
:1043080009E0FB78022B03D14FF40073FB6002E055
:104318004FF44073FB6000F0F7FA0346FB72FB7A38
:10432800082B2FD11A4A1A4B1B6923F440731361C7
:104338001749174B1A69FB6813430B61144A144B4E
:104348001B6923F0F80313611149114B1A697B6843
:10435800134343F002030B610D4A0D4B1B6943F4F1
:104368008033136100F0D0FA0346FB72084A084B09
:104378001B6923F002031361054A054B1B6923F0EF
:10438800F8031361FB7A18461037BD4680BD00BF9D
:10439800003C024080B584B000AF0346FB710023A7
:1043A800FB600823FB7200F0AFFA0346FB72FB794F
:1043B800002B02D10023FB6010E0FB79012B03D115
:1043C8004FF48073FB6009E0FB79022B03D14FF4B3
:1043D8000073FB6002E04FF44073FB60FB7A082B2C
:1043E80021D1134A124B1B6923F4407313611049FE
:1043F8000F4B1A69FB6813430B610D4A0C4B1B6981
:1044080043F0040313610A4A094B1B6943F48033E0
:10441800136100F079FA0346FB72054A044B1B69E5
:1044280023F004031361FB7A18461037BD4680BD9C
:10443800003C024090B587B000AFF860C7E90023A0
:104448000823FB7500F060FA0346FB75FB7D082B1B
:1044580020D1134A124B1B6923F440731361104A8D
:104468000F4B1B6943F4407313610D4A0C4B1B69D6
:1044780043F001031361FA68D7E90034C2E9003454
:1044880000F042FA0346FB75054A054B1B6923F009
:1044980001031361FB7D18461C37BD4690BD00BF64
:1044A800003C024080B584B000AF786039600823D2
:1044B800FB7300F029FA0346FB73FB7B082B1ED124
:1044C800114A114B1B6923F4407313610E4A0E4BBA
:1044D8001B6943F4007313610B4A0B4B1B6943F0D0
:1044E800010313617B683A681A6000F00DFA03460D
:1044F800FB73054A044B1B6923F001031361FB7B23
:1045080018461037BD4680BD003C024080B584B0D7
:1045180000AF78600B467B800823FB7300F0F4F94A
:104528000346FB73FB7B082B1ED1124A114B1B69F8
:1045380023F4407313610F4A0E4B1B6943F48073D5
:1045480013610C4A0B4B1B6943F0010313617B6831
:104558007A881A8000F0D8F90346FB73054A054BA0
:104568001B6923F001031361FB7B18461037BD4616
:1045780080BD00BF003C024080B584B000AF7860C9
:104588000B46FB700823FB7300F0BEF90346FB7370
:10459800FB7B082B1CD1114A104B1B6923F4407379
:1045A80013610E4A0D4B1B6913610C4A0B4B1B69B7
:1045B80043F0010313617B68FA781A7000F0A4F9DC
:1045C8000346FB73054A054B1B6923F0010313617E
:1045D800FB7B18461037BD4680BD00BF003C02403B
:1045E80080B400AF084B5B6903F00103002B05D0D2
:1045F800054B064A9A60044B054A9A6000BFBD46BF
:104608005DF8047B704700BF003C02403B2A190854
:104618007F6E5D4C80B400AF054A054B5B6943F083
:104628000103536100BFBD465DF8047B704700BFBE
:10463800003C024080B584B000AF78600B46FB7048
:104648000823FB7300F060F90346FB73FB7B082B20
:1046580017D1FB78002B0BD00C490C4B1B889AB256
:104668007B689BB2DB439BB213409BB20B8008E094
:104678000649064B1B889AB27B689BB213439BB2D0
:104688000B8000BF1037BD4680BD00BF163C0240FE
:1046980080B584B000AF0346FB710823FB7300F0BC
:1046A80033F90346FB73FB7B082B02D1034AFB79E2
:1046B800137000BF1037BD4680BD00BF153C0240D7
:1046C80080B584B000AF0346FB710B46BB7113463F
:1046D8007B71FF23FB730823BB7300F015F90346B6
:1046E800BB73BB7B082B11D10A4B1B78DBB203F0E1
:1046F8000F03FB730749BA79FB7B1343DAB27B7963
:104708001343DAB2FB791343DBB20B7000BF1037E7
:10471800BD4680BD143C024080B483B000AF034660
:10472800FB710B4A0A4B1B78DBB223F00C03DBB29C
:1047380013700749064B1B78DAB2FB791343DBB2D7
:104748000B7000BF0C37BD465DF8047B704700BF97
:10475800143C024080B582B000AF0823FB71084AC0
:10476800074B1B78DBB243F00203DBB2137000F097
:10477800CBF80346FB71FB7918460837BD4680BD68
:10478800143C024080B400AF044B5B695B09DBB2A8
:104798001846BD465DF8047B704700BF003C0240E8
:1047A80080B400AF034B1B889BB21846BD465DF82A
:1047B800047B7047163C024080B483B000AF0023EE
:1047C800FB71084B1B78DBB2AA2B02D00123FB71CB
:1047D80001E00023FB71FB7918460C37BD465DF8F4
:1047E800047B7047153C024080B400AF054B1B7832
:1047F800DBB203F00C03DBB21846BD465DF8047B60
:10480800704700BF143C024080B483B000AF7860AA
:104818000B46FB70FB78002B06D00A49094B1A6936
:104828007B6813430B6106E00649064B1A697B68EF
:10483800DB4313400B6100BF0C37BD465DF8047BBA
:10484800704700BF003C024080B485B000AF78607C
:104858000023FB73084BDA687B681340002B02D0F7
:104868000123FB7301E00023FB73FB7B184614371D
:10487800BD465DF8047B7047003C024080B483B0BD
:1048880000AF7860044A7B68D36000BF0C37BD4630
:104898005DF8047B704700BF003C024080B483B0E1
:1048A80000AF0823FB71174BDB6803F48033B3F5C3
:1048B800803F02D10123FB711CE0124BDB6803F03F
:1048C8001003002B02D00523FB7113E00D4BDB68AE
:1048D80003F0EF03002B02D00623FB710AE0094B1B
:1048E800DB6803F00203002B02D00723FB7101E011
:1048F8000823FB71FB7918460C37BD465DF8047B2D
:10490800704700BF003C024080B582B000AF08236A
:10491800FB71FFF7C3FF0346FB7103E0FFF7BEFF20
:104928000346FB71FB79DBB2012BF7D0FB79DBB2D5
:1049380018460837BD4680BD80B483B000AF7860A4
:10494800064A7B6843F0BF6343F40033D36000BF7B
:104958000C37BD465DF8047B704700BF00ED00E0F2
:1049680080B485B000AF78600023FB730023BB736D
:104978000F237B737B68DB78002B39D0274BDB68F0
:10498800DB431B0ADBB203F00703FB73FB7BC3F1BA
:104998000403BB737A7BFB7B42FA03F37B737B686C
:1049A8005B781A46BB7B02FA03F3FB737B689A7841
:1049B8007B7B1340DAB2FB7B1343FB73FB7B1B014E
:1049C800FB73174A7B681B781344FA7B83F8002330
:1049D800134A7B681B785B09DBB218467B681B7837
:1049E80003F01F03012101FA03F342F820300FE01E
:1049F8000B497B681B785B09DBB218467B681B7820
:104A080003F01F0301229A4000F1200341F82320FC
:104A180000BF1437BD465DF8047B704700ED00E029
:104A280000E100E080B483B000AF786039600749E6
:104A38003B6823F0604323F07F037A6813438B605D
:104A480000BF0C37BD465DF8047B704700ED00E001
:104A580080B483B000AF03460A46FB711346BB71AE
:104A6800BB79002B06D00A49094B1A69FB79134315
:104A78000B6106E00649064B1A69FB79DB431340D4
:104A88000B6100BF0C37BD465DF8047B704700BF63
:104A980000ED00E080B483B000AF78607B68042B41
:104AA80006D1094A084B1B6843F00403136005E06C
:104AB800054A054B1B6823F00403136000BF0C373D
:104AC800BD465DF8047B704710E000E080B483B019
:104AD80000AF78607B681B6823F001027B681A606E
:104AE8007B6800221A607B6800225A607B6800227B
:104AF8009A607B680022DA607B6800221A617B6812
:104B080021225A617B68464A934203D1454B3D2294
:104B18009A607EE07B68444A934204D1414B4FF44B
:104B280074629A6075E07B68404A934204D13D4BB9
:104B38004FF474129A606CE07B683D4A934204D14A
:104B4800384B4FF074629A6063E07B68394A93424D
:104B580003D1344B384ADA605BE07B68374A9342CA
:104B680003D1304B364ADA6053E07B68354A9342CA
:104B780003D12C4B344ADA604BE07B68334A9342CA
:104B880004D1284B4FF03D52DA6042E07B68304A4E
:104B9800934203D12F4B3D229A603AE07B682E4A1C
:104BA800934204D12B4B4FF474629A6031E07B68D6
:104BB8002A4A934204D1274B4FF474129A6028E092
:104BC8007B68274A934204D1224B4FF074629A6063
:104BD8001FE07B68234A934203D11E4B164ADA60D2
:104BE80017E07B68204A934203D11A4B144ADA60D3
:104BF8000FE07B681D4A934203D1164B124ADA60D4
:104C080007E07B681A4A934203D1124B4FF03D529A
:104C1800DA6000BF0C37BD465DF8047B704700BF03
:104C2800106002400060024028600240406002407C
:104C380058600240706002403D00002088600240D9
:104C4800400F0020A060024000003D20B8600240F4
:104C5800106402400064024028640240406402403C
:104C6800586402407064024088640240A0640240B4
:104C7800B864024080B485B000AF78603960002322
:104C8800FB607B681B68FB60FA68254B1340FB6080
:104C98003B681A683B68DB681A433B685B691A43E0
:104CA8003B689B691A433B68DB691A433B681B6A8C
:104CB8001A433B685B6A1A433B689B6A1A433B6822
:104CC8005B6B1A433B689B6B1343FA681343FB60A7
:104CD8007B68FA681A607B685B69FB60FB6823F095
:104CE8000703FB603B68DA6A3B681B6B1343FA688F
:104CF8001343FB607B68FA685A613B681A697B68F2
:104D08005A603B685A687B689A603B689A687B6817
:104D1800DA6000BF1437BD465DF8047B704700BFFA
:104D28003F801CF080B483B000AF78607B680022BD
:104D38001A607B6800225A607B6800229A607B6850
:104D48000022DA607B6800221A617B6800225A61BF
:104D58007B6800229A617B680022DA617B68002206
:104D68001A627B6800225A627B6800229A627B681A
:104D78000022DA627B6800221A637B6800225A6389
:104D88007B6800229A6300BF0C37BD465DF8047B40
:104D9800704780B483B000AF78600B46FB70FB7837
:104DA800002B06D07B681B6843F001027B681A6001
:104DB80005E07B681B6823F001027B681A6000BF6E
:104DC8000C37BD465DF8047B704780B483B000AFF4
:104DD800786039603B68002B06D07B681B6843F419
:104DE80000427B681A6005E07B681B6823F4004278
:104DF8007B681A6000BF0C37BD465DF8047B7047BE
:104E080080B483B000AF786039603B68002B06D06F
:104E18007B681B6843F020027B681A6005E07B68AA
:104E28001B6823F020027B681A6000BF0C37BD4660
:104E38005DF8047B704780B483B000AF78600B46A0
:104E48007B807A887B685A6000BF0C37BD465DF866
:104E5800047B704780B483B000AF78607B685B6880
:104E68009BB218460C37BD465DF8047B704780B48A
:104E780085B000AFF860B9607A607B68002B06D017
:104E8800FB681B6843F40022FB681A6005E0FB68B6
:104E98001B6823F40022FB681A60FB68BA681A6171
:104EA80000BF1437BD465DF8047B704780B483B0FB
:104EB80000AF78600B46FB70FB78002B06D07B6850
:104EC8001B6843F480227B681A6005E07B681B68D6
:104ED80023F480227B681A6000BF0C37BD465DF85A
:104EE800047B704780B485B000AFF860B9607A6021
:104EF8007B68002B03D0FB68BA681A6102E0FB6884
:104F0800BA68DA6000BF1437BD465DF8047B7047A5
:104F180080B485B000AF78600023FB607B681B68B5
:104F280003F40023002B02D00123FB6001E00023DF
:104F3800FB60FB6818461437BD465DF8047B704774
:104F480080B485B000AF78600023FB737B681B6872
:104F580003F00103002B02D00123FB7301E00023BF
:104F6800FB73FB7B18461437BD465DF8047B70471E
:104F780080B485B000AF78600023FB607B685B6914
:104F880003F03803FB60FB6818461437BD465DF82C
:104F9800047B704780B487B000AF78603960002325
:104FA800FB750023FB607B68154A934202D8154BBA
:104FB8003B6101E0144B3B613B6803F00053002B5D
:104FC80003D03B695B68FB6002E03B691B68FB60E0
:104FD800FB6823F0F02323F08213FB60FA683B6838
:104FE8001340002B02D00123FB7501E00023FB7561
:104FF800FB7D18461C37BD465DF8047B704700BF33
:105008000F640240006002400064024080B485B032
:1050180000AF786039607B68104A934202D8104B21
:10502800FB6001E00F4BFB603B6803F00053002B73
:1050380007D03B6823F0F02323F08213FA68D3608B
:1050480006E03B6823F0F02323F08213FA689360AC
:1050580000BF1437BD465DF8047B70470F640240FB
:10506800006002400064024080B485B000AFF86080
:10507800B9601346FB71BB6803F08003002B0FD0A7
:10508800FB79002B06D0FB685B6943F08002FB6864
:105098005A6105E0FB685B6923F08002FB685A618E
:1050A800BB68802B14D0FB79002B08D0FB681A68EA
:1050B800BB6803F01E031A43FB681A6008E0FB682C
:1050C8001A68BB6803F01E03DB431A40FB681A60CA
:1050D80000BF1437BD465DF8047B704780B487B0C5
:1050E80000AF786039600023FB750023FB60002364
:1050F800BB607B68224A934202D8224B3B6101E0A5
:10510800214B3B613B6823F0F02323F0C313002BB2
:105118000AD03B68DB0A03F01E03FB607B681A6851
:10512800FB681340BB6004E07B685B6903F08003A5
:10513800BB603B6803F00053002B03D03B695B68FE
:10514800FB6002E03B691B68FB60FB6823F0F0230F
:1051580023F08213FB60FA683B681340002B05D0EC
:10516800BB68002B02D00123FB7501E00023FB750F
:10517800FB7D18461C37BD465DF8047B704700BFB1
:105188000F640240006002400064024080B485B0B1
:1051980000AF786039607B68104A934202D8104BA0
:1051A800FB6001E00F4BFB603B6803F00053002BF2
:1051B80007D03B6823F0F02323F08213FA68D3600A
:1051C80006E03B6823F0F02323F08213FA6893602B
:1051D80000BF1437BD465DF8047B70470F6402407A
:1051E800006002400064024090B59BB000AFB96017
:1051F8007A603B600346FB7300237B6100237B6579
:10520800012387F86730BB683B657B683B66BB6FEB
:10521800FB650023BB6507F11803184607F00EF875
:10522800FB7B012B02D100233B8701E004233B8752
:1052380010237B878023BB8707F13803184606F0C5
:1052480069FF3B6D1B687B647B6C1BBA3B643B6CE2
:105258003B623B6D04333B653B6D1B68FB64FB6C39
:105268001BBABB64BB6C7B6207F11803184606F0D7
:10527800B9FF07F037F8012007F044F80023BB65B1
:105288003AE03B6E1B68184607F05AF83B6E043349
:105298003B663B6E1B68184607F052F83B6E0433BA
:1052A8003B6600237B61102007F090F903467B657D
:1052B8007B6901337B617B69B3F5803F02D07B6DED
:1052C800002BF0D17B6D002B03D0002387F86730CB
:1052D8000FE0FC6D07F044F803462360FB6D0433D0
:1052E800FB65FC6D07F03CF803462360FB6D043357
:1052F800FB65BB6D0833BB65BA6D3B689A4203D248
:1053080097F86730002BBCD1002006F0FBFF97F818
:10531800673018466C37BD4690BD90B5A3B000AF56
:10532800B9607A603B600346FB7300233B6100234E
:105338007B67012387F88730BB683B673B68C7F802
:105348008030D7F89C30FB677B68FB660023BB671F
:1053580007F12403184606F071FFFB7B012B03D1EC
:105368000023A7F8443002E00423A7F844301823A8
:10537800A7F846308023A7F8483007F144031846B9
:1053880006F0C8FE3B6F1B683B653B6D1BBAFB64B0
:10539800FB6CFB623B6F04333B673B6F1B68BB6571
:1053A800BB6D1BBA7B657B6D3B6307F12403184615
:1053B80006F018FFFB6E1B683B663B6E1BBAFB656D
:1053C800FB6D7B61FB6E0433FB66FB6E1B68BB6683
:1053D800BB6E1BBA7B667B6EBB6107F11403184674
:1053E80006F04EFF06F07EFF012006F08BFF00233B
:1053F800BB6740E0D7F880301B68184606F0A0FF6E
:10540800D7F880300433C7F88030D7F880301B686D
:10541800184606F095FFD7F880300433C7F8803077
:1054280000233B61102007F0D1F803467B673B69F6
:1054380001333B613B69B3F5803F02D07B6F002BA2
:10544800F0D17B6F002B03D0002387F887300FE063
:10545800FC6F06F085FF03462360FB6F0433FB6790
:10546800FC6F06F07DFF03462360FB6F0433FB6788
:10547800BB6F0833BB67BA6FD7F898309A4203D22C
:1054880097F88730002BB5D1002006F03BFF97F83E
:10549800873018468C37BD4690BD90B5A3B000AF95
:1054A800B9607A603B600346FB7300237B6100238D
:1054B8007B67012387F88730BB683B677B68C7F841
:1054C8008030D7F89830FB670023BB6707F11803D3
:1054D800184606F0B3FEFB7B012B02D100233B8765
:1054E80001E004233B8700237B878023BB8707F1E8
:1054F8003803184606F00EFE3B6F1B687B647B6C16
:105508001BBA3B643B6C3B623B6F04333B673B6FAE
:105518001B68FB64FB6C1BBABB64BB6C7B623B6F98
:1055280004333B673B6F1B687B657B6D1BBA3B6530
:105538003B6DBB623B6F04333B673B6F1B68FB658E
:10554800FB6D1BBABB65BB6DFB623B6F04333B67EE
:105558003B6F1B687B667B6E1BBA3B663B6E3B638F
:105568003B6F04333B673B6F1B68FB66FB6E1BBAE4
:10557800BB66BB6E7B6307F11803184606F032FE64
:1055880006F0B0FE012006F0BDFE0023BB6740E038
:10559800D7F880301B68184606F0D2FED7F880305E
:1055A8000433C7F88030D7F880301B68184606F0F7
:1055B800C7FED7F880300433C7F8803000237B61FA
:1055C800102007F003F803467B677B6901337B6192
:1055D8007B69B3F5803F02D07B6F002BF0D17B6FE6
:1055E800002B03D0002387F887300FE0FC6F06F00C
:1055F800B7FE03462360FB6F0433FB67FC6F06F0BE
:10560800AFFE03462360FB6F0433FB67BB6F0833B1
:10561800BB67BA6F3B689A4203D297F88730002B72
:10562800B6D1002006F06EFE97F8873018468C3702
:10563800BD4690BD90B5ABB000AFB9607A603B6035
:105648000346FB7300233B610023C7F89430012312
:1056580087F8A730BB68C7F890303B68C7F8A03018
:10566800D7F8BC30C7F89C307B68C7F88C3000236B
:10567800C7F8983007F12403184606F0DFFDFB7BD6
:10568800012B03D10023A7F8443002E00423A7F834
:1056980044300823A7F846308023A7F8483007F19C
:1056A8004403184606F036FDD7F890301B683B6572
:1056B8003B6D1BBAFB64FB6CFB62D7F8903004337C
:1056C800C7F89030D7F890301B68BB65BB6D1BBA24
:1056D8007B657B6D3B63D7F890300433C7F8903017
:1056E800D7F890301B683B663B6E1BBAFB65FB6DB9
:1056F8007B63D7F890300433C7F89030D7F89030F0
:105708001B68BB66BB6E1BBA7B667B6EBB63D7F838
:1057180090300433C7F89030D7F890301B683B6757
:105728003B6F1BBAFB66FB6EFB63D7F89030043304
:10573800C7F89030D7F890301B68BB67BB6F1BBAAF
:105748007B677B6F3B6407F12403184606F04AFD2C
:10575800D7F88C301B68C7F88030D7F880301BBA70
:10576800FB67FB6F7B61D7F88C300433C7F88C304C
:10577800D7F88C301B68C7F88830D7F888301BBA40
:10578800C7F88430D7F88430BB6107F11403184692
:1057980006F076FD06F0A6FD012006F0B3FD002315
:1057A800C7F898304BE0D7F8A0301B68184606F0C9
:1057B800C7FDD7F8A0300433C7F8A030D7F8A03019
:1057C8001B68184606F0BCFDD7F8A0300433C7F8AC
:1057D800A03000233B61102006F0F8FE0346C7F80E
:1057E80094303B6901333B613B69B3F5803F03D09B
:1057F800D7F89430002BEED1D7F89430002B03D093
:10580800002387F8A73015E0D7F89C4006F0A8FDDC
:1058180003462360D7F89C300433C7F89C30D7F888
:105828009C4006F09DFD03462360D7F89C30043366
:10583800C7F89C30D7F898300833C7F89830D7F8AD
:105848009820D7F8B8309A4203D297F8A730002B9F
:10585800A9D1002006F056FD97F8A7301846AC37B6
:10586800BD4690BD80B59CB000AFF860B9607A6065
:105878000023FB820023FB6600233B6100233B6679
:10588800012387F86B30FB687B667B68FB65BB6828
:105898009BB203F003039BB2DB009BB2FB82FDF7D4
:1058A80079F88023FB6200233B6320237B6307F1A5
:1058B8002C031846FDF77AF8FB8A9BB21846FDF7C9
:1058C800D3F80023FB660AE07B6E1B681846FDF7D9
:1058D800E5F87B6E04337B66FB6E0433FB66FA6E79
:1058E800BB689A42F0D3FDF719F90820FDF7CAF909
:1058F80003463B663B6901333B613B69B3F5803F37
:1059080002D03B6E002BF0D13B6E002B03D000235E
:1059180087F86B302DE007F118031846FDF7DEF81D
:10592800FB6DBA693A643A6C12BAFA63FA6B1A6098
:10593800FB6D0433FB65FB6DFA69BA64BA6C12BA85
:105948007A647A6C1A60FB6D0433FB65FB6D3A6A06
:105958003A653A6D12BAFA64FA6C1A60FB6D043350
:10596800FB65FB6D7A6ABA65BA6D12BA7A657A6DAB
:105978001A6097F86B3018467037BD4680BD80B501
:105988009EB000AFF860B9607A603B6000237B830B
:1059980000233B8300237B6700237B6100237B6616
:1059A800012387F87330FB68FB667B68BB66D7F812
:1059B80080303B663B689BB203F003039BB2DB007D
:1059C8009BB27B83BB689BB203F003039BB2DB00F3
:1059D8009BB23B83FCF7DEFF80233B6340237B6362
:1059E8002023BB63BB68402B03D94FF48033FB6390
:1059F80001E00023FB6307F130031846FCF7D6FFEC
:105A08003B8B9BB21846FDF72FF800237B670AE013
:105A1800FB6E1B681846FDF741F8FB6E0433FB6606
:105A28007B6F04337B677A6FBB689A42F0D3FDF7CC
:105A380075F80820FDF726F903467B667B69013374
:105A48007B617B69B3F5803F02D07B6E002BF0D180
:105A58007B6E002B03D0002387F8733091E07B8B9B
:105A68009BB21846FDF700F800237B670AE0BB6E7F
:105A78001B681846FDF712F8BB6E0433BB667B6FD4
:105A880004337B677A6F3B689A42F0D3FDF746F898
:105A980000237B610820FDF7F5F803467B667B69E8
:105AA80001337B617B69B3F5803F02D07B6E002BAD
:105AB800F0D17B6E002B03D0002387F8733060E0B1
:105AC8003B8B9BB21846FCF7CFFFFB68FB660023B5
